:100000000C9484000C94AC000C94AC000C94AC00E8
:100010000C94AC000C94AC000C94AC000C941A172B
:100020000C94AC000C94AC000C94AC000C94AC00A0
:100030000C94AC000C94F5100C94830D0C94AC0053
:100040000C94B9170C94AC000C94B81A0C94EA1ADE
:100050000C94AC000C94AC000C94AC000C94AC0070
:100060000C94AC000C94AC00AD02B202B702BC021E
:10007000C102C602CB02D002D502DA02090C310C51
:10008000700C590C870C8C0C910C960CAD0C4E130B
:1000900052132113241328132F1333133613391338
:1000A0003D134113451348132B13000000080002B1
:1000B000010000030407000000000000000001022E
:1000C00004081020408001020408102001020408E6
:1000D00010200404040404040404020202020202C4
:1000E000030303030303000000002300260029008C
:1000F00000000000250028002B0000000000240064
:1001000027002A00470D1A1B11241FBECFEFD8E08D
:10011000DEBFCDBF12E0A0E0B1E0E8E2F8E302C04C
:1001200005900D92A236B107D9F726E0A2E6B2E01B
:1001300001C01D92A73AB207E1F711E0C8E0D1E093
:1001400004C02297FE010E940E1CC430D107C9F7DB
:100150000E94B21B0C94121C0C94000000E010E0F2
:1001600027ED3BE042E469EC70E084EE92E00E940F
:10017000231020E43DE041E469EC70E08DEA93E077
:100180000E942310FFCF08950F931F93F8946EE001
:1001900083ED92E00E941115882339F064E670E047
:1001A00080E090E00E943218F2CF0FEF13E020E0E1
:1001B00030E040E060E083ED92E00E942C150FEF0C
:1001C00013E020E030E040E061E083ED92E00E9447
:1001D0002C1500E912E020E030E040E060E083ED23
:1001E00092E00E94711578941F910F910895EF92FB
:1001F000FF920F9388ECE82E81E0F82E08E020E0D3
:1002000040E354E060E070E083ED92E00E94351638
:100210000F91FF90EF90089561E087E00E94DB1856
:1002200060E083E00E94DB1860E084E00E94DB185D
:1002300060E085E00E94DB1860E086E00E94DB1849
:1002400061E083E10E94DB1861E082E10E94DB183B
:1002500061E087E00E94141961E083E10E941419B3
:1002600061E082E10C9414198091A9029091AA0294
:1002700001969093AA028093A902833821E0920705
:1002800011F461E005C08C3123E0920721F460E0B5
:1002900087E00C941419843923E0920791F3863196
:1002A000944041F460E087E00E9414191092AA0281
:1002B0001092A90208958091A7029091A802019638
:1002C0009093A8028093A702803C910511F461E00D
:1002D00004C08D3F910521F460E087E00C9414196F
:1002E000843321E0920799F3823F914041F460E02A
:1002F00087E00E9414191092A8021092A702089594
:100300008091A5029091A60201969093A6028093F7
:10031000A5028E30910511F461E004C08C31910585
:1003200021F460E087E00C94141980329105A1F368
:10033000849741F460E087E00E9414191092A602AD
:100340001092A50208958091A3029091A4020196B3
:100350009093A4028093A3028B30910511F461E085
:1003600004C08F30910521F460E087E00C941419EB
:1003700083319105A1F3809741F460E087E00E940A
:1003800014191092A4021092A302089580919D0264
:1003900090919E028530910511F40C9434018630C1
:1003A000910511F40C945B018330910539F484E0DC
:1003B0000E944A19892B09F10C94A30184309105FC
:1003C00039F484E00E944A19892BB9F00C94800119
:1003D000009721F461E087E00C941419029769F406
:1003E00060E087E00E94141984E00E944A19892B7A
:1003F00021F010929E0210929D02089561E087E024
:100400000E94DB1861E089E00E94DB1860E083E075
:100410000E94DB1860E084E00E94DB1860E085E069
:100420000E94DB1860E086E00E94DB1861E083E157
:100430000E94DB1861E082E10E94DB1861E087E046
:100440000E94141961E089E00E94141961E083E1BF
:100450000E94141960E082E10C94141980919702B3
:100460009091980201969093980280939702873317
:10047000910511F461E004C08135910521F460E03B
:1004800089E00C9414198A36910521F4109298028F
:10049000109297020895809195029091960201968C
:1004A00090939602809395028634910521F461E041
:1004B00087E00C9414198A36910541F460E087E0D6
:1004C0000E9414191092960210929502089580913C
:1004D000C4019091C5018130910521F40E942E0242
:1004E0000C944B02009731F461E087E00E941419EC
:1004F00061E007C0029741F460E087E00E941419B0
:1005000060E089E00C94141908958091760490912C
:100510007704892B11F00C94C6010C94670260E0FB
:1005200081E10C94DB1820E030E0EAE0F0E0009795
:1005300039F0BF010E94D61BCB012F5F3F4FF7CF91
:10054000C9010895F8948A309105E0F5FC01EC5C4E
:10055000FF4F20E230E00C940C1C47E958E66FEFA7
:1005600070E02CC04FEC50E36FEF70E027C047EE17
:1005700058E16FEF70E022C045E85AE76FEF70E096
:100580001DC04FEE50E16FEF70E018C047EC58E32C
:100590006FEF70E013C045EA5AE56FEF70E00EC0F0
:1005A0004DEB52E46FEF70E009C045EB5AE46FEF9A
:1005B00070E004C04DEA52E56FEF70E084E992E02C
:1005C0000E94CD1678940895F8948AE090E00E94F5
:1005D000481020E230E04DE152EE6FEF70E084E928
:1005E00092E00E94CD168AE090E00E944810789434
:1005F000089561E08EE00E94DB1861E08EE00C94CB
:10060000141926E040E052EC61E070E084E895E0E7
:100610000E94561A60EE71E084E895E00E949F1BEC
:1006200061E08EE00E94DB1861E080E10E94DB184F
:1006300060E08FE00E94DB1861E08EE00E941419F8
:1006400060E080E10E9414198FE00E944A19892B12
:1006500079F068EE71E084E895E00E949F1B81E0EC
:1006600090E090937704809376040E940C010CC074
:1006700061E072E084E895E00E949F1B109277048D
:10068000109276040E94FE010E948F020E94F902DD
:1006900048EE53E060E070E086EA94E00E94841146
:1006A0002FEF3FEFA90165E872E086EA94E00E942F
:1006B00094110E94C4008EEA90E00E94500DFFCF7A
:1006C0000F931F93CF93DF938091680290916902FB
:1006D000892B91F0C1E0D0E0D0937502C0937402F1
:1006E00087E891E00E944810109269021092680217
:1006F000D093C002C093BF028091660290916702BE
:10070000892B91F0C1E0D0E0D0937302C0937202C4
:1007100087E891E00E9448101092670210926602EA
:10072000D093C202C093C10280916402909165028D
:10073000892BD1F080916E0290916F02892BA1F4E8
:100740000E94031800916A0210916B0220916C02C2
:1007500030916D02601B710B820B930B653F7140F2
:100760008105910508F08DC0809164029091650229
:10077000892B09F079C0C0916E02D0916F02C1300F
:10078000D10509F071C00E94031800916A0210910E
:100790006B0220916C0230916D02601B710B820B19
:1007A000930B693E734081059105E8F010927B043C
:1007B00010927A04D093C101C093C001D0937D04FC
:1007C000C0937C04D0937F04C0937E040E940318DE
:1007D00060938004709381048093820490938304D7
:1007E0000E94F70041C00E94031800916A02109114
:1007F0006B0220916C0230916D02601B710B820BB9
:10080000930B633071058105910570F1D0937F04DE
:10081000C0937E048091C0019091C1018130910507
:1008200031F48AE090E09093C1018093C0019093ED
:100830007D0480937C048091C0019091C1010A964F
:100840009093C1018093C0010E94031860938004BB
:1008500070938104809382049093830481E090E0FC
:1008600090937F0480937E0480916402909165024E
:1008700090936F0280936E02DF91CF911F910F9141
:1008800008950E94031860936A0270936B0280932C
:100890006C0290936D0268CF60E08EE00C941419A6
:1008A00061E08EE00E94141981E090E09093BF0116
:1008B0008093BE0110926302109262020895EF923B
:1008C000FF920F931F93CF93DF9383E00E944A1907
:1008D00090937904809378048130910509F0AAC13E
:1008E0001092A00210929F022091A1023091A202C8
:1008F000232BD1F49093A2028093A10260E087E0C1
:100900000E9414190E944C048091C6019091C70165
:10091000892B21F060E083E10E94141982E090E0CD
:1009200090939E0280939D0282E690E00E94481080
:1009300085E00E944A19892B09F4B9C08EE190E044
:100940000E944810C4E0D0E003E010E025E0E22E71
:10095000F12C85E00E944A19892B09F48FC18091FE
:10096000C6019091C701009759F484EC92E00E946F
:10097000481060E083E10E94141982E690E066C0AE
:100980008130910541F586E00E944A19892B09F0D2
:1009900075C1F0929E02E0929D0288E290E00E9472
:1009A000481061E083E10E9414198AE691E00E94F8
:1009B000481060E083E10E9414198091C601909173
:1009C000C70101969093C7018093C60182E690E02B
:1009D0000E944810BECF82309105C9F486E00E9483
:1009E0004A19892B09F04AC110939E0200939D0277
:1009F00061E083E10E94141980E790E00E944810B2
:100A000060E083E10E94141983E790E01FC0833007
:100A1000910541F586E00E944A19892B09F02EC103
:100A2000D0939E02C0939D0288E590E00E944810FA
:100A300061E083E10E94141980EB90E00E9448106D
:100A400060E083E10E94141988E590E00E9448105C
:100A50008091C6019091C70101969093C701809340
:100A6000C60177CF049709F074CF86E00E944A1937
:100A7000892B09F003C186E090E090939E02809359
:100A80009D0261E083E10E94141980E790E00E94DA
:100A9000481060E083E10E94141983E790E00E940F
:100AA00048108091C6019091C70101964BC086E025
:100AB0000E944A19892B09F4E1C08EE190E00E945E
:100AC0004810C5E0D0E003E010E094E0E92EF12CFE
:100AD00065C084309105D9F18330910509F471C066
:100AE0008230910509F47EC0019709F057C085E076
:100AF0000E944A19892B09F0C1C010929E021092DF
:100B00009D0288E290E00E94481061E083E10E942B
:100B100014198CEE92E00E94481088E290E00E9446
:100B2000481060E082E10E94141988E590E00E947C
:100B3000481061E082E10E9414198091C6019091F1
:100B4000C70101979093C7018093C60197C085E0C4
:100B50000E944A19892B09F091C010939E020093BC
:100B60009D0288E590E00E94481061E083E10E94C8
:100B7000141980EB90E00E94481060E083E10E942D
:100B8000141983E790E00E9448108091C60190916B
:100B9000C70101979093C7018093C60186E00E9428
:100BA0004A19892B09F46AC08091C6019091C70146
:100BB0008530910509F08DCFF0929E02E0929D0262
:100BC0000AC085E00E944A19892B09F057C0D093CA
:100BD0009E02C0939D0261E083E10E94141980E7A8
:100BE00090E0C9CF85E00E944A19892B09F046C0E0
:100BF00088E290E00E94481061E083E10E941419AD
:100C00008AE691E00E94481060E083E10E94141996
:100C100083E790E00E9448108091C6019091C7013F
:100C200001979093C7018093C60110929E02109283
:100C30009D0224C01092A2021092A10210929E0264
:100C400010929D0280919F029091A002892BB1F495
:100C5000C1E0D0E0D093A002C0939F0261E083E1A5
:100C60000E9414190E9450048091C6019091C701FE
:100C7000892B21F0D093C701C093C601DF91CF919A
:100C80001F910F91FF90EF900895CF93DF9383E032
:100C900090E00E94481083E00E944A1990937904E2
:100CA000809378048130910509F08DC110929A02E9
:100CB0001092990220919B0230919C02232B81F487
:100CC00090939C0280939B0260E087E00E9414193D
:100CD0000E944C0482E090E09093C5018093C4018F
:100CE00085E00E944A19892B09F4C5C08EE190E085
:100CF0000E944810C1E0D0E085E00E944A19892B8B
:100D000009F485C18091C2019091C301009799F4C3
:100D100088E590E00E94481060E083E10E94141989
:100D200080ED93E00E94481061E083E10E94141975
:100D300081E390E06FC08130910521F586E00E944B
:100D40004A19892B09F063C188E590E00E94481098
:100D500060E083E10E94141988EB91E00E94481042
:100D600061E083E10E9414198091C2019091C30156
:100D700001969093C3018093C20181E390E00E94A9
:100D80004810BACF8230910551F586E00E944A1989
:100D9000892B39F081E090E09093C5018093C401E4
:100DA00036C160E083E10E9414198FE490E00E9454
:100DB000481061E083E10E94141983E790E00E94EB
:100DC00048108091C2019091C30101969093C30194
:100DD0008093C201D093C501C093C4018DCF8330ED
:100DE000910521F586E00E944A19892B09F00FC16F
:100DF000D093C501C093C40160E083E10E9414193F
:100E00008FE490E00E94481061E083E10E94141991
:100E100083E790E00E9448108091C2019091C30145
:100E200001969093C3018093C20166CF049709F0A5
:100E300063CF86E00E944A19892B09F0E8C081E05F
:100E400090E09093C5018093C40160E083E10E942B
:100E500014198FE490E00E94481061E083E10E9441
:100E6000141983E790E00E9448108091C20190918C
:100E7000C30101967BC086E00E944A19892B09F4C0
:100E8000C6C08EE190E00E944810C1E0D0E023C0CF
:100E900085E00E944A19892B09F0B9C0D093C50199
:100EA000C093C40160E083E10E9414198FE490E0D4
:100EB0000E94481061E083E10E94141983E790E0EA
:100EC0000E9448108091C2019091C30101979093B4
:100ED000C3018093C20186E00E944A19892B09F45C
:100EE00096C08091C2019091C30185309105B1F205
:100EF0008430910569F28330910551F28230910579
:100F0000D1F1019741F788E290E00E94481085E016
:100F10000E944A19892B09F07AC01092C5011092DB
:100F2000C40188E290E00E94481060E083E10E94E2
:100F3000141980ED93E00E94481061E083E10E9463
:100F4000141988E290E00E94481061E082E10E945A
:100F5000141988E590E00E94481060E082E10E9448
:100F600014198091C2019091C30101979093C3011C
:100F70008093C2014CC085E00E944A19892B09F078
:100F800046C088E290E00E94481060E083E10E9441
:100F9000141988EB91E00E94481061E083E10E94FF
:100FA000141983E790E00E9448108091C20190914B
:100FB000C30101979093C3018093C2011092C501B0
:100FC0001092C40124C010929C0210929B021092B5
:100FD000C5011092C4018091990290919A02892BC7
:100FE000B1F4C1E0D0E0D0939A02C093990261E0DD
:100FF00083E10E9414190E9450048091C2019091D3
:10100000C301892B21F0D093C301C093C201DF91AA
:10101000CF9108958091780490917904892B31F0D3
:1010200081E090E090936902809368020895809136
:10103000780490917904892B31F081E090E09093CD
:101040006702809366020895EF92FF920F9380915A
:10105000780490917904892B09F454C038ECE32E7C
:1010600031E0F32E08E020E040E354E060E070E07F
:1010700083ED92E00E9435168091BE019091BF01F0
:101080008130910549F422E030E03093BF01209394
:10109000BE0125E030E028C08230910549F483E0AC
:1010A00090E09093BF018093BE0186E090E00BC07A
:1010B0008330910579F484E090E09093BF018093B0
:1010C000BE0187E090E09093C8028093C70281E060
:1010D00090E00EC0049781F481E090E09093BF010E
:1010E0008093BE0128E030E03093C8022093C7020D
:1010F0009093C4028093C30281E090E090937902C0
:10110000809378020F91FF90EF900895EF92FF92F5
:101110000F938091780490917904892BB9F148EC70
:10112000E42E41E0F42E08E020E040E354E060E0EB
:1011300070E083ED92E00E943516809162029091FA
:101140006302892B69F481E090E0909363028093BD
:10115000620224E030E03093C8022093C7020CC042
:10116000109263021092620283E090E09093C802B2
:101170008093C70281E090E09093C4028093C30201
:1011800081E090E090937702809376020F91FF9038
:10119000EF9008952091780430917904232B69F021
:1011A000882339F081E090E0909365028093640297
:1011B000089510926502109264020895EF92FF92D2
:1011C0000F931F9383ED92E00E949716833009F0EE
:1011D0004CC00E9403186093BB027093BC028093C2
:1011E000BD029093BE021092D20249EC52E061ED32
:1011F00072E083ED92E00E94651683ED92E00E941A
:101200009F16603972408105910579F58091CB0276
:10121000883029F0803129F40E940A0802C00E9417
:1012200017088091CC02803429F0803829F40E947C
:10123000240802C00E9486088091CD02843091F477
:1012400081E00E94CA0880917A0490917B04892BE6
:1012500061F481E090E090937B0480937A040E9493
:10126000E40203C080E00E94CA088091C10290910C
:10127000C202892B19F170EDE72E71E0F72E08E01C
:1012800020E040E952E060E070E083ED92E00E94EF
:10129000351688E590E00E944810EBEAEE2EE2E079
:1012A000FE2E20E040E952E060E070E083ED92E045
:1012B0000E9435161092C2021092C1028091BF02A4
:1012C0009091C002892B19F158EDE52E51E0F52ED1
:1012D00008E020E040E952E060E070E083ED92E059
:1012E0000E94351688E590E00E94481063EBE62ED8
:1012F00062E0F62E20E040E952E060E070E083ED2D
:1013000092E00E9435161092C0021092BF020E9415
:1013100003180091BB021091BC022091BD023091D4
:10132000BE02601B710B820B930B693E73408105FB
:10133000910550F00E9403186093BB027093BC02A9
:101340008093BD029093BE021F910F91FF90EF908A
:101350000895121613063CF4805D809392012130AB
:10136000310529F40EC080E2809392010AC0605DCD
:10137000609393012230310539F0405D4093940130
:1013800006C080E28093930180E28093940181E023
:1013900090E09093C4028093C30289E090E0909320
:1013A000C8028093C7020895AF92BF92CF92DF9296
:1013B000EF92FF920F931F93CF93DF93CDB7DEB7DA
:1013C0008091780290917902892B81F010927902B4
:1013D00010927802F89420E230E04FE150EE6FEF87
:1013E00070E084E992E00E94CD16789480917602B4
:1013F00090917702892B81F01092770210927602F9
:10140000F89420E230E047E658E96FEF70E084E9B5
:1014100092E00E94CD1678948091740290917502AA
:10142000892B81F01092750210927402F89420E2D8
:1014300030E04DE352EC6FEF70E084E992E00E94FF
:10144000CD1678948091720290917302892B81F06D
:101450001092730210927202F89420E230E04DEF85
:1014600052E06FEF70E084E992E00E94CD1678942C
:101470008091700290917102892B21F0109271027B
:101480001092700280917E0490917F04892B09F460
:101490004EC10E9403180091800410918104209194
:1014A000820430918304601B710B820B930B6132B9
:1014B00073408105910508F43AC110927F0410929F
:1014C0007E0410928102109280026AE172E084E848
:1014D00095E00E949F1B80918C0290918D02009755
:1014E000A9F420917C0430917D0440917E025091BA
:1014F0007F024217530751F04091800250918102C0
:10150000452B21F4309389022093880200918802B0
:10151000109189020115110509F43EC1892B09F0CA
:1015200045C081E090E090938D0280938C02C801C9
:101530000E9493029C0190939102809390021093D9
:101540009302009392028430910530F00FB6F89424
:10155000DEBF0FBECDBF2AC090938F0280938E0254
:10156000C8018901000F111F0E571D4FE0E0F0E088
:10157000AAE0EA2EF12C2150310932972F3FBFEF1C
:101580003B0759F06801CE0EDF1EB7010E94C21B57
:10159000D6018D939C93CB01EECF809392029093D2
:1015A00093023093910220939002D0CF80918C02CD
:1015B00090918D028130910509F520918A02309138
:1015C0008B02232BD9F420918E0230918F021216B8
:1015D0001306A4F490938B0280938A028091820276
:1015E000909183020E94A2020E94031860937A02E3
:1015F00070937B0280937C0290937D0280918C0299
:1016000090918D02019701F580918A0290918B0251
:101610000197D1F480918E0290918F020297A4F0ED
:101620000E94031800917A0210917B0220917C02A3
:1016300030917D02601B710B820B930B633371053C
:101640008105910508F07AC080918C0290918D02FD
:10165000019701F580918A0290918B020297D1F453
:1016600080918E0290918F020397A4F00E9403183C
:1016700000917A0210917B0220917C0230917D02D0
:10168000601B710B820B930B633371058105910510
:1016900008F06BC020918A0230918B0280918E02FB
:1016A00090918F022817390709F076C00E9403181D
:1016B00000917A0210917B0220917C0230917D0290
:1016C000601B710B820B930B653C79408105910582
:1016D00008F462C010928D0210928C0210928B025C
:1016E00010928A02809188029091890290937F02E1
:1016F00080937E02109289021092880220918E02BD
:1017000030918F024091860250918702609184024D
:101710007091850280918202909183020E94A909B2
:101720000E94E40210927B0410927A0435C081E09A
:1017300090E09093810280938002CDCE82E090E091
:1017400090938B0280938A0280918402909185020B
:101750000E94A2020E94031860937A0270937B0297
:1017600080937C0290937D026FCF83E090E0909312
:101770008B0280938A0280918602909187020E9458
:10178000A2020E94031860937A0270937B028093F6
:101790007C0290937D027ECFDF91CF911F910F91BC
:1017A000FF90EF90DF90CF90BF90AF900895809121
:1017B000760490917704892B19F00E945F0402C08F
:1017C0000E9445060E94D409F2CFEF92FF920F9338
:1017D0008091C3029091C402892B09F44DC180917C
:1017E000C5029091C602833091050CF03DC101966F
:1017F0009093C6028093C502E091C702F091C8029F
:101800003197E930F10508F0D8C0E25CFF4F0C9445
:101810000C1C66E6E62E61E0F62E08E020E04FE2C2
:1018200053E060E070E083ED92E00E9435168AE0BC
:1018300090E00E9448107EE5E72E71E0F72E20E050
:101840004FE253E060E070E083ED92E00E943516D5
:101850008AE090E00E944810E6E5EE2EE1E0FE2EE0
:10186000A3C03EE4E32E31E0F32E08E020E04FE297
:1018700053E060E070E083ED92E00E9435168AE06C
:1018800090E00E94481046E4E42E41E0F42E20E06F
:101890004FE253E060E070E083ED92E00E94351685
:1018A0008AE090E00E9448105EE3E52E51E0F52EBC
:1018B0007BC096E8E92E91E0F92E08E020E04FE2A7
:1018C00053E060E070E083ED92E00E9435168AE01C
:1018D00090E00E9448102EE7E22E21E0F22E53C045
:1018E00006E7E02E01E0F02E08E020E04FE253E0B2
:1018F00060E070E083ED92E00E9435168AE090E0AF
:101900000E9448108EE6E82E81E0F82E3CC0B6EB2F
:10191000EB2EB1E0FB2E0EC0AEEAEA2EA1E0FA2ECD
:1019200009C0F6EAEF2EF1E0FF2E04C0EEE9EE2E3C
:10193000E1E0FE2E08E020E04FE253E060E070E0DE
:1019400083ED92E00E9435168AE090E00E944810F4
:1019500076E3E72E71E0F72E16C056E9E52E51E04A
:10196000F52E08E020E04FE253E060E070E083ED08
:1019700092E00E9435168AE090E00E9448106EE8DE
:10198000E62E61E0F62E20E04FE253E060E070E0EA
:1019900083ED92E00E9435168AE090E00E944810A4
:1019A0004EE2E42E41E0F42E20E04FE253E060E00E
:1019B00070E083ED92E00E9435168AE090E00E948C
:1019C0004810B6E2EB2EB1E0FB2E08E020E04FE23B
:1019D00053E060E070E083ED92E00E9435168AE00B
:1019E00090E00E9448108EE1E82E81E0F82E20E081
:1019F0004FE253E060E070E083ED92E00E94351624
:101A00008AE090E00E94481096E1E92E91E0F92EDC
:101A100020E04FE253E060E070E083ED92E00E944E
:101A200035168AE090E00E9448102EE0E22E21E078
:101A3000F22E20E04FE453E060E070E083ED92E0AE
:101A40000E9435168AE090E00E94481036E0E32EAE
:101A500031E0F32E20E04FE453E060E070E083EDEE
:101A600092E00E94351608C01092C4021092C30280
:101A70001092C6021092C5020F91FF90EF90089548
:101A80000E94DE080E9460030E94E50BF9CF6AE025
:101A900083ED92E00E94031584E992E00C941617FE
:101AA000CF93DF9300D0CDB7DEB7909385048093BA
:101AB0008404F8940E94F1100E94540F8091A306B0
:101AC0009091A406009729F42091020180910301CE
:101AD00002C0282F892FE22FF82FCE01439725E54A
:101AE000E817F90710F42193FBCFFA83E983789480
:101AF000E0918404F0918504309709F009950E94E3
:101B0000C300FDCF08951F920F920FB60F921124BC
:101B10002F933F934F935F936F937F938F939F93F5
:101B2000AF93BF93EF93FF930E947D0F0E94C40E6B
:101B300081110E94400FFF91EF91BF91AF919F9152
:101B40008F917F916F915F914F913F912F910F9066
:101B50000FBE0F901F90189580E887BDEEE6F0E06D
:101B600080818260808308952F923F924F925F928E
:101B70006F927F928F929F92AF92BF92CF92DF929D
:101B8000EF92FF920F931F93CF93DF93FB010DB65C
:101B900005820EB60682FC0105800DBE06800EBED3
:101BA000DF91CF911F910F91FF90EF90DF90CF9039
:101BB000BF90AF909F908F907F906F905F904F906D
:101BC0003F902F9008957894C201F10109950E94E9
:101BD0007F100895E1E2F6E0F0932406E0932306F7
:101BE000F183E08310922506F0932B06E0932A06FA
:101BF000F0932906E09328060895CF93DF93DC0144
:101C00001D961C921D9714962C91E1E2F6E001902E
:101C1000F081E02D34813217D0F7EC01F983E883AD
:101C2000A281B381BB83AA83938382838D939C9388
:101C3000DF91CF910895CF93DF93FC0185858330A9
:101C400049F018F4882311F118C0853059F08D300F
:101C500049F013C0A289B38914968C9114978F5FB1
:101C600014968C93A281B3818081918111969C936B
:101C70008E93C081D181BB83AA838FEF9FEF938B1B
:101C8000828BCF01DF91CF910C94FD0DDF91CF912D
:101C90000895CF93DF932CE236E0D9016D917C91CA
:101CA000FB01858784E18787E1E2F6E0808191810D
:101CB000DC01CD91DC911197D183C083FB83EA8352
:101CC000F9019183808321E01D962C93DF91CF91C0
:101CD0000C94B40D1F93CF93DF93CDB7DEB72A9743
:101CE0000FB6F894DEBF0FBECDBF182F6F3F8FEF3A
:101CF0007807B1F020912C0630912D064BE15EE083
:101D0000CE0101960E949510812F0E94490E8F816D
:101D10009885892B41F0CE0101960E94CD1003C019
:101D2000812F0E94490EE0912C06F0912D068289A8
:101D300093892A960FB6F894DEBF0FBECDBFDF9110
:101D4000CF911F910895CF93DF93EC017B8B6A8B2A
:101D500080912C0690912D063C81FC012481231753
:101D600028F0CE01DF91CF910C94FD0D0E94FD0D66
:101D7000D0932D06C0932C0621E02D87BC01CE0107
:101D8000DF91CF910C94B40DE0912106F0912206E1
:101D90002481E0912C06F0912D069481878588237B
:101DA00021F081E0921728F003C081E0291708F4A0
:101DB00080E008950F931F93CF93DF93CCE2D6E09A
:101DC00008811981A1E2B6E02D913C911197F901AA
:101DD0008081918111969C938E93FC01B383A283A1
:101DE0003983288381E0F901858784E1F8018787B9
:101DF000C8010E94FD0DB80188819981DF91CF91C2
:101E00001F910F910C94B40DCF93DF93E0912C06AA
:101E1000F0912D068091210690912206EC01A88177
:101E2000B981B0932206A093210621E236E01396F1
:101E30003C932E93129790932D0680932C0621E0CD
:101E40002D8715862481A1E2B6E00D90BC91A02DCE
:101E500014963C9114972317C0F3B183A083129674
:101E6000CD91DC911397D383C2831396FC93EE93A9
:101E70001297F983E883BF01DF91CF910C94B40DE1
:101E8000E0912C06F0912D068785811102C00C94FB
:101E9000DA0E0C94040FE0912C06F0912D068BE3E2
:101EA00092E094878387FFCF0F931F930E94EA0DE0
:101EB0000E94821060E486E894E00E94CD0F909327
:101EC0002D0680932C0621E0FC0125877894E09173
:101ED0002C06F0912D0685E292E09487838700E03E
:101EE00010E02BE43FE041E06DE670E08EE296E02A
:101EF0000E9423101F910F9108950F931F93CF936A
:101F0000DF93E0912C06F0912D068785882311F050
:101F100081508787808991890196918B808B8091F0
:101F2000A1069091A20601969093A2068093A10625
:101F3000E0919B06F0919C0686E0EB39F80741F1B1
:101F4000848195810197958384830BE916E0A091A4
:101F50009B06B0919C0614968D919C911597892BA8
:101F6000B9F41696ED91FC91179717961C921E9254
:101F70001697CD91DC9111971B830A83D0939C0611
:101F8000C0939B0618968D919C9119970995DFCF68
:101F9000DF91CF911F910F910895CF93DF93FC01B3
:101FA000648382E08587168684E18787678F168E33
:101FB000158E148E118A108A1486138681E296E09B
:101FC00090878783CAE2D6E0A881B981B287A187CA
:101FD000F983E8831896FC93EE931797CF01449604
:101FE000958B848B0296918F808F978B868BCF01F8
:101FF000DF91CF9108950F931F93FC0165517109F3
:10200000680F791F76836583DB0152962C93A58137
:10201000B68151963C93A581B68150960C93A581CB
:10202000B6811F961C93A581B68183EE9DE05396E1
:102030009C93A581B68154968C93642FCF011F91F8
:102040000F910C94CD0F0F931F93CF93DF93DC016F
:102050009096FC015FEFEA17FB0711F05193FBCF5D
:10206000DC01A60FB71F55E5EA17FB0710F45193E3
:10207000FBCFF8940E94FB0FEC0160E070E00E943F
:10208000A30E7894CE01DF91CF911F910F91089507
:10209000F894BC0186E00E946A0E789408950F932C
:1020A0001F93CF93DF93C0912C06D0912D069B8B6D
:1020B0008A8B8E010C5E1F4F8C899D89801791073A
:1020C00041F0FC01208131813D8B2C8B0E94FD0D64
:1020D000F3CF8E85837061F4E985FA858F819885C9
:1020E00090878783AF81B8851A96FC93EE931997F2
:1020F0008EE0DF91CF911F910F910C94490EF894CF
:102100000C944F10EBE9F6E0F0939E06E0939D06E9
:10211000F183E0838FEF9FEF9093A00680939F065B
:102120001092A2061092A1060895CF93DF93DC01CE
:1021300019963C932E93189717965C934E93169787
:10214000E0919B06F0919C06848195818617970704
:1021500030F4681B790B0190F081E02DF5CF1196DA
:10216000FC93EE93C281D3811396DC93CE931297A6
:10217000B383A283B983A88315967C936E93149737
:1021800086E0EB39F80731F084819581861B970B47
:1021900095838483DF91CF910895CF93DF93FC01E2
:1021A000A081B18186E0AB39B80761F014968D91BA
:1021B0009C91159724813581820F931F15969C93CE
:1021C0008E931497C281D381B983A883A081B181F2
:1021D0001396DC93CE93129717821682DF91CF91DC
:1021E00008950E94820D0C94AC0D1F920F920FB6B1
:1021F0000F9211242F933F934F935F936F937F938D
:102200008F939F93AF93BF93EF93FF93E091AA04B3
:10221000F091AB040995FF91EF91BF91AF919F9120
:102220008F917F916F915F914F913F912F910F907F
:102230000FBE0F901F901895FC01A3E0440F551F8F
:10224000661F771FAA95D1F74115510581E06807F0
:10225000710514F481E00EC033E0759567955795CC
:1022600047953A95D1F74115510581E06807710509
:102270001CF482E0828331C023E075956795579501
:1022800047952A95D1F74115510581E068077105F9
:1022900014F483E0EFCF92E07595679557954795D5
:1022A0009A95D1F74115510581E06807710514F43D
:1022B00084E0E0CF82E075956795579547958A95BC
:1022C000D1F785E082834115510581E068077105EA
:1022D00024F04FEF5FEF60E070E08FB78383F894F6
:1022E00051834083509387004093860083818FBF42
:1022F00080918100887F809381008091810092810C
:10230000892B8093810008951092800020E1209312
:1023100081000C941C11E1E8F0E02081DC011296B0
:102320008C91282B208308950F931F93CF93DF93D5
:10233000EC018B01BA01A901141615061606170641
:1023400014F40E941C111D830C8381E080936F00A4
:10235000CE01DF91CF911F910F910C948B11CF93F0
:10236000CFB7F8948091AC04811127C0ECEDF0E078
:102370008491E8ECF0E09491E82FF0E0EE0FFF1F7D
:10238000E650FF4FA591B4918C91892321F461E02F
:102390008AE00E94141961E08AE00E94DB188CB583
:1023A00080618CBD8CB580648CBD61E08DE00E9445
:1023B000DB1861E08BE00E94DB188091AC048F5F3A
:1023C0008093AC04CFBFCF9108958EBD00000DB4B3
:1023D00007FEFDCF8EB50895CF93DF93EC0160E04B
:1023E00088890E94141980EC0E94E51161E08889B7
:1023F0000E9414196AE070E080E090E0DF91CF91D4
:102400000C9432181F93CF93DF93EC01162F60E0EA
:1024100088890E94141983E00E94E511812F0E948F
:10242000E51180E00E94E511182F61E088890E9483
:102430001419812FDF91CF911F910895CF92DF92D0
:10244000EF92FF920F931F93CF93DF9300D0CDB7FE
:10245000DEB78C01E62EF22E60E0FC018089498314
:102460005A830E94141983E00E94E5118E2D0E9468
:10247000E5114981E42EC42E5A81D52E8C2D8E195A
:102480008F1538F480E00E94E511F60181936F0109
:10249000F5CF61E0F80180890F900F90DF91CF9127
:1024A0001F910F91FF90EF90DF90CF900C94141933
:1024B000EF92FF921F93CF93DF931F92CDB7DEB7BA
:1024C0007C01162F60E0FC01808949830E94141969
:1024D00082E00E94E511812F0E94E5114981842F3D
:1024E0000E94E51161E0F70180890F90DF91CF91A3
:1024F0001F91FF90EF900C941419CF92DF92EF92FE
:10250000FF920F931F93CF93DF9300D0CDB7DEB729
:102510008C01E62EF22E60E0FC01808949835A830B
:102520000E94141982E00E94E5118E2D0E94E5118F
:102530004981E42EC42E5A81D52E8C2D8E198F15EB
:1025400030F4F60181916F010E94E511F6CF61E050
:10255000F80180890F900F90DF91CF911F910F911B
:10256000FF90EF90DF90CF900C941419EF92FF92B0
:102570001F93CF93DF9300D0CDB7DEB77C01162F2A
:1025800060E0FC0180892A8349830E94141985E058
:102590000E94E511812F0E94E5114981842F0E943C
:1025A000E5112A81822F0E94E51161E0F7018089FF
:1025B0000F900F90DF91CF911F91FF90EF900C94AF
:1025C00014191F93CF93DF93EC0160E088890E9478
:1025D000141980EA0E94E51180E00E94E511182F8D
:1025E00061E088890E941419812FDF91CF911F919A
:1025F00008951F93CF93DF93EC01162F262F40EE03
:102600006FE00E94B6126FE0CE010E940212982F76
:10261000907E81E0911301C080E0DF91CF911F9106
:1026200008950F931F93CF93DF93EC01462F50E053
:10263000FA013197EE30F10578F5E95BFF4F0C9424
:102640000C1C17E80FEF02C015E801EF4FE02DC09A
:1026500017E80EEF02C017E00EEB46E026C017E8C1
:102660000AEF47E022C017E80FEF05C017E80AEFAE
:1026700002C016E800EF43E018C017E80AEF41E097
:1026800014C015E801EF41E410C016E800EF02C0E5
:1026900012E800ED40E009C081E016C017E80FEF36
:1026A0004FE303C017E80FEF4FE16AE2CE010E944B
:1026B0005812402F69E2CE010E945812412F68E261
:1026C000CE010E94581280E0DF91CF911F910F91AF
:1026D00008951F93CF93DF93EC0110E340E0612F47
:1026E000CE010E94581260E1610F40E0CE010E94CD
:1026F000581260E2610F40E0CE010E9458121F5F45
:102700001E3361F740E060E6CE010E94581240E0BF
:1027100060E7CE01DF91CF911F910C9458120F9377
:102720001F93CF93DF93EC01062F0E94EC1160E81A
:10273000CE010E94F912182F811122C0602FCE0104
:102740000E94111381111CC0CE010E94691343E045
:102750006BE2CE010E94581224E044E660E6CE010E
:102760000E94B61220E040E660E7CE010E94B61259
:1027700060E0CE01DF91CF911F910F910C94F9127F
:10278000812FDF91CF911F910F9108950F931F9388
:10279000CF93DF9300D000D0CDB7DEB74130B1F496
:1027A0000C831B83890122273327502F5C71402F14
:1027B000437078E0579F400D112448604A8355E0EC
:1027C000169507955A95E1F709830DC0A80123E0F6
:1027D000569547952A95E1F749830295000F007EAB
:1027E0000A831C821B8224E0AE014F5F5F4F0E9470
:1027F0007D120F900F900F900F90DF91CF911F914E
:102800000F910895EF92FF920F931F93CF93DF9351
:1028100000D000D0CDB7DEB77A018901FA0110826D
:10282000F901108211821282138224E0AE014F5FFF
:102830005F4F0E941E122A813981822F90E045E06D
:10284000959587954A95E1F7F8E03F9F800D911D9A
:102850001124AA2797FDA095BA2FF80180839183B0
:10286000A283B38323FF25C062E0880F991FAA1FAC
:10287000BB1F6A95D1F72370820F911DA11DB11D59
:10288000BA2FA92F982F88272B81820F911DA11D68
:10289000B11DBA2FA92F982F88272C81820F911D47
:1028A000A11DB11D80839183A283B38381E0F701D1
:1028B00080830F900F900F900F90DF91CF911F9119
:1028C0000F91FF90EF900895FF920F931F93CF9376
:1028D000DF93EC01F62EAC014A5F5F4F65E06F0DB0
:1028E0002D810E947D128E85813019F48D81806446
:1028F0008D8364E06F0D4D81CE010E9458120981D5
:102900001A812B813C8148816F2DCE010E94C61314
:10291000DF91CF911F910F91FF9008950F931F9317
:10292000CF93DF93EC01162F9C012F5F3F4FAC013B
:102930000E9402146FEF610FCE010E940212082F55
:1029400064E0610FCE010E940212282F8D8303FFE5
:1029500003C081E08E8701C01E862F702D83AE01DB
:102960004A5F5F4F65E0610FCE01DF91CF911F910C
:102970000F910C941E12615028E048E00C94B6129E
:102980009F92AF92BF92CF92DF92EF92FF920F93FE
:102990001F93CF93DF9300D01F92CDB7DEB76C01AA
:1029A0007B0180E3898380E48A8380E58B83FB015C
:1029B00010828E010F5F1F4F5E01F4E0AF0EB11C5D
:1029C000F80191908F01692DC6010E940212982F83
:1029D000987083FD04C09394F701908204C00A1597
:1029E0001B0571F792E0892F0F900F900F90DF91E8
:1029F000CF911F910F91FF90EF90DF90CF90BF90FC
:102A0000AF909F900895CF93DF93EC01862F688B52
:102A100061E00E94DB1861E08889DF91CF910C941E
:102A20001419CF93DF9300D01F92CDB7DEB76B831D
:102A300089839A830E94AF116B8189819A810E9458
:102A40008F1391E0811101C090E0892F0F900F90BA
:102A50000F90DF91CF9108958F929F92BF92CF9266
:102A6000DF92EF92FF920F931F93CF93DF931F920A
:102A7000CDB7DEB74C01B62E6801790160E8498315
:102A80000E94F912498181111FC0B11004C0970141
:102A9000860160E206C081E0B81206C09701860197
:102AA00064E2C4010E94C61360E0C4010F90DF918C
:102AB000CF911F910F91FF90EF90DF90CF90BF903B
:102AC0009F908F900C94F9120F90DF91CF911F91EE
:102AD0000F91FF90EF90DF90CF90BF909F908F90DD
:102AE0000895AF92BF92CF92DF92EF92FF920F9331
:102AF0001F93CF93DF9300D0CDB7DEB75C01562F85
:102B00006801790160E84A8359830E94F9124A8179
:102B10005981811136C05230B1F040F4552379F01B
:102B20005130F9F49701860164E018C0543099F0EF
:102B300070F05530B1F49701860168E10FC097013C
:102B4000860160E00BC09701860168E007C097012D
:102B5000860160E103C09701860164E1C5010E941E
:102B6000C61360E0C5010F900F90DF91CF911F91C8
:102B70000F91FF90EF90DF90CF90BF90AF900C94AB
:102B8000F9120F900F90DF91CF911F910F91FF904D
:102B9000EF90DF90CF90BF90AF900895EF92FF92AB
:102BA0000F93CF93DF93FC01208341835283638390
:102BB00074830583D70180E090E02D91EF01C80F69
:102BC000D91F2E83019688309105B9F780E0DF91F7
:102BD000CF910F91FF90EF900895EF92FF920F9396
:102BE0001F93CF93DF931F92CDB7DEB78C01E12CFB
:102BF000F12CBE016F5F7F4FC8010E94C0149FEF90
:102C0000E91AF90A823029F482E3E816F10489F717
:102C100023C092E3E916F104F9F06981C8010E942A
:102C200064146981C8010E94BB14E12CF12C8FEF60
:102C3000E81AF80A6981C8010E94021283FF06C0DF
:102C400092E3E916F10499F787E007C082E3E816FA
:102C5000F104D1F380E001C086E00F90DF91CF91C5
:102C60001F910F91FF90EF900895EF92FF920F93B5
:102C7000CF93DF93EC010E94CE15CE01DF91CF916F
:102C80000F91FF90EF900C94ED15CF93DF93EC0133
:102C90000E94E11280FF07C061E6CE010E948E14FF
:102CA00020E041E008C081FF0CC061E7CE010E9436
:102CB0008E1420E042E06CE2CE010E94B61280E069
:102CC00001C084E0DF91CF910895EF92FF920F93BE
:102CD0001F93CF93DF9300D0CDB7DEB77C018B017C
:102CE00049835A830E944516D70115968C91F801A5
:102CF00080834981E42F5A81F52F80E090E0D7014D
:102D000015962C9130E08217930744F4D701A80F51
:102D1000B91F16962C9121930196F1CF0F900F9029
:102D2000DF91CF911F910F91FF90EF9008950E9436
:102D3000E112837011F083E0089584E00895FC01AE
:102D400061817281838194810895CF93DF93EB0138
:102D500061E081E10E94DB1860E081E10E941419CA
:102D60001C161D062CF4CE01DF91CF910C946C182B
:102D7000DF91CF910895CF93DF93EB0160E081E184
:102D80000E94DB181C161D062CF4CE01DF91CF919A
:102D90000C946C18DF91CF910895AF92BF92CF92AF
:102DA000DF92EF92FF920F931F93CF93DF93EC018B
:102DB0006A017B01590160E081E10E94DB1868E251
:102DC00073E2CE010E94A51664E971E1CE010E9472
:102DD000BB1600E010E060E372E0CE010A151B05AF
:102DE000ACF4F7FE05C00E94A51660E476E004C0CE
:102DF0000E94A51660E372E0CE010E94BB16CC0CC7
:102E0000DD1CEE1CFF1C0F5F1F4FE5CF0E94A516B7
:102E100060E081E1DF91CF911F910F91FF90EF90E2
:102E2000DF90CF90BF90AF900C94DB1861E081E110
:102E30000C94DB181F920F920FB60F9211242F9350
:102E40003F934F935F936F937F938F939F93AF9332
:102E5000BF93EF93FF938091AD040E944A19209194
:102E6000B0043091B1042F5F3F4F3093B1042093F1
:102E7000B00490917A05943618F095E09093AE04E2
:102E80009091AE049330B9F018F4923039F057C0F5
:102E9000943059F1953009F44CC051C081114FC0A4
:102EA0002091B0043091B1042436310508F443C0B8
:102EB00010927A051CC0813009F041C0E0917A057A
:102EC00091E09E0F90937A05F0E02091B00430914C
:102ED000B104EE0FFF1FE355FB4F3683258310929D
:102EE000B1041092B00494E021C0811117C0E091A8
:102EF0007A0591E09E0F90937A05F0E02091B0045E
:102F00003091B104EE0FFF1FE355FB4F368325834D
:102F10001092B1041092B00493E008C02091B00464
:102F20003091B1042536310550F095E09093AE0410
:102F300006C0811104C01092B1041092B0049091A7
:102F4000AF04992329F0811102C02D9A01C02D9858
:102F5000FF91EF91BF91AF919F918F917F916F9171
:102F60005F914F913F912F910F900FBE0F901F9047
:102F700018951F920F920FB60F9211242F933F9323
:102F80008F939F93AF93BF9380917C0590917D0524
:102F9000A0917E05B0917F0530917B0523E0230F42
:102FA0002D3720F40196A11DB11D05C026E8230F81
:102FB0000296A11DB11D20937B0580937C05909303
:102FC0007D05A0937E05B0937F058091800590914B
:102FD0008105A0918205B09183050196A11DB11DC7
:102FE0008093800590938105A0938205B09383051B
:102FF000BF91AF919F918F913F912F910F900FBEF5
:103000000F901F9018952FB7F89460917C057091E0
:103010007D0580917E0590917F052FBF08953FB774
:10302000F8948091800590918105A0918205B091DE
:10303000830526B5A89B05C02F3F19F00196A11D59
:10304000B11D3FBF6627782F892F9A2F620F711D00
:10305000811D911D42E0660F771F881F991F4A95B9
:10306000D1F708958F929F92AF92BF92CF92DF9245
:10307000EF92FF926B017C010E940F184B015C01E3
:10308000C114D104E104F104F1F00E94C11B0E94BB
:103090000F18681979098A099B09683E73408105F0
:1030A000910570F321E0C21AD108E108F10888EE19
:1030B000880E83E0981EA11CB11CC114D104E10448
:1030C000F10429F7DDCFFF90EF90DF90CF90BF9014
:1030D000AF909F908F9008958230910538F0880FBF
:1030E000991F880F991F05970197F1F70895789414
:1030F00084B5826084BD84B5816084BD85B58260FD
:1031000085BD85B5816085BDEEE6F0E0808181609A
:103110008083E1E8F0E0108280818260808380819A
:1031200081608083E0E8F0E0808181608083E1EB72
:10313000F0E0808184608083E0EBF0E0808181605A
:103140008083EAE7F0E08081846080838081826010
:1031500080838081816080838081806880831092F9
:10316000C1000895833081F028F4813099F08230D5
:10317000A1F008958730A9F08830B9F08430D1F4F7
:10318000809180008F7D03C0809180008F77809335
:103190008000089584B58F7702C084B58F7D84BD8B
:1031A00008958091B0008F7703C08091B0008F7D2B
:1031B0008093B0000895CF93DF9390E0FC01E25438
:1031C000FF4F2491FC01EE52FF4F8491882349F177
:1031D00090E0880F991FFC01E650FF4FA591B49134
:1031E00080519F4FFC01C591D4919FB7611108C0D8
:1031F000F8948C91209582238C93888182230AC035
:10320000623051F4F8948C91322F309583238C9353
:103210008881822B888304C0F8948C91822B8C93B4
:103220009FBFDF91CF9108950F931F93CF93DF93AB
:103230001F92CDB7DEB7282F30E0F901E655FF4FDA
:103240008491F901E254FF4F1491F901EE52FF4FBE
:1032500004910023C9F0882321F069830E94B218E9
:103260006981E02FF0E0EE0FFF1FE051FF4FA591C5
:10327000B4919FB7F8948C91611103C0109581238C
:1032800001C0812B8C939FBF0F90DF91CF911F9135
:103290000F910895CF93DF93282F30E0F901E65581
:1032A000FF4F8491F901E254FF4FD491F901EE529E
:1032B000FF4FC491CC2391F081110E94B218EC2FE2
:1032C000F0E0EE0FFF1FEA51FF4FA591B4912C9152
:1032D0002D2381E090E021F480E002C080E090E0C6
:1032E000DF91CF910895FC01818D228D90E0805C6B
:1032F0009F4F821B91098F7399270895FC01918D2F
:10330000828D981731F0828DE80FF11D858D90E048
:1033100008958FEF9FEF0895FC01918D828D98178E
:1033200061F0828DDF01A80FB11D5D968C91928DA9
:103330009F5F9F73928F90E008958FEF9FEF0895A6
:1033400080E19BE1892B49F080E090E0892B29F016
:103350000E94101B81110C9400000895FC01848DC3
:10336000DF01A80FB11DA35ABF4F2C91848D90E0AF
:1033700001968F739927848FA689B7892C93A0898A
:10338000B1898C9180648C93938D848D981306C041
:103390000288F389E02D80818F7D80830895CF930B
:1033A000DF93EC01888D8823C9F0EA89FB8980814D
:1033B00085FD05C0A889B9898C9186FD0FC00FB61F
:1033C00007FCF5CF808185FFF2CFA889B9898C9160
:1033D00085FFEDCFCE010E94AE19E7CFDF91CF91EF
:1033E0000895CF92DF92FF920F931F93CF93DF93B5
:1033F0001F92CDB7DEB76C0181E0D60158968C9351
:1034000058975B969C915B975C968C915C97981310
:1034100007C05096ED91FC915197808185FD2EC09B
:10342000F601038D10E00F5F1F4F0F731127F02E71
:10343000F601848DF81211C00FB607FCF9CFD60142
:103440005096ED91FC915197808185FFF1CFC60197
:1034500069830E94AE196981EBCF838DE80FF11D5E
:10346000E35AFF4F6083D6015B960C935B975296AD
:10347000ED91FC915397808180620CC0D6015696E5
:10348000ED91FC91579760835096ED91FC91519787
:1034900080818064808381E090E00F90DF91CF9104
:1034A0001F910F91FF90DF90CF900895BF92CF9220
:1034B000DF92EF92FF92CF93DF93EC016A017B01E1
:1034C000B22EE889F98982E08083411581EE5807A0
:1034D00061057105A1F060E079E08DE390E0A7015E
:1034E00096010E94EA1B2150310941095109569564
:1034F000479537952795211580E1380798F0E88999
:10350000F989108260E874E88EE190E0A7019601E5
:103510000E94EA1B215031094109510956954795EE
:1035200037952795EC85FD853083EE85FF852083D3
:10353000188EEC89FD89B082EA89FB8980818061DF
:103540008083EA89FB89808188608083EA89FB899E
:10355000808180688083EA89FB8980818F7D808378
:10356000DF91CF91FF90EF90DF90CF90BF900895C3
:103570001F920F920FB60F9211242F938F939F9348
:10358000EF93FF93E0919405F09195058081E09190
:103590009A05F0919B0582FD12C0908180919D0556
:1035A0008F5F8F7320919E05821751F0E0919D05EA
:1035B000F0E0EC57FA4F958F80939D0501C0808114
:1035C000FF91EF919F918F912F910F900FBE0F90D0
:1035D0001F9018951F920F920FB60F9211242F93E0
:1035E0003F934F935F936F937F938F939F93AF938B
:1035F000BF93EF93FF9384E895E00E94AE19FF918B
:10360000EF91BF91AF919F918F917F916F915F915A
:103610004F913F912F910F900FBE0F901F901895D3
:1036200084E895E00E94731921E0892B09F420E0D9
:10363000822F0895109287051092860588EE93E0F8
:10364000A0E0B0E08093880590938905A0938A0557
:10365000B0938B0584E492E0909385058093840574
:1036600085EC90E0909391058093900584EC90E038
:10367000909393058093920580EC90E0909395054C
:103680008093940581EC90E0909397058093960544
:1036900082EC90E0909399058093980586EC90E0F9
:1036A00090939B0580939A0510929D0510929E051C
:1036B00010929F051092A0050895CF92DF92EF928D
:1036C000FF920F931F93CF93DF937C016A01EB016D
:1036D00000E010E00C151D0571F06991D701ED9126
:1036E000FC910190F081E02DC7010995892B19F01B
:1036F0000F5F1F4FEFCFC801DF91CF911F910F9147
:10370000FF90EF90DF90CF9008956115710581F0E3
:10371000DB010D900020E9F7AD0141505109461B36
:10372000570BDC01ED91FC910280F381E02D0994AF
:1037300080E090E0089560E572E00C94851B0F93A3
:103740001F93CF93DF93EC010E94851B8C01CE0168
:103750000E949B1B800F911FDF91CF911F910F91B2
:10376000089508950E9477180E94B11B0E940103DA
:10377000C0EAD9E10E94C3002097E1F30E94A0199A
:10378000F9CF0895AA1BBB1B51E107C0AA1FBB1F9D
:10379000A617B70710F0A61BB70B881F991F5A95DD
:1037A000A9F780959095BC01CD01089597FB072E50
:1037B00016F4009407D077FD09D00E94C21B07FCC5
:1037C00005D03EF4909581959F4F08957095619531
:1037D0007F4F0895A1E21A2EAA1BBB1BFD010DC04D
:1037E000AA1FBB1FEE1FFF1FA217B307E407F507B1
:1037F00020F0A21BB30BE40BF50B661F771F881F8D
:10380000991F1A9469F760957095809590959B0122
:10381000AC01BD01CF010895EE0FFF1F0590F4919B
:08382000E02D0994F894FFCF9C
:103828000000A70680001B00052D000000001B00FB
:10383800042D000000000096022020202020019680
:1038480002202020202002960220202020200396FB
:1038580001202020202004960120202020200396EB
:103868000120202020200496014C415945524596BC
:10387800014D503320500396014F202020200496FC
:1038880001205241495645960148454C4C4F0496F3
:103898000154204F464645960152455045410496ED
:1038A8000154204F4E2045960152455045410496FB
:1038B800012020202020459601534F4E4720459651
:1038C8000145513420204596014551332020459625
:1038D80001455132202045960145513120200100F3
:1038E8000100010001000100500400000000000078
:1038F80000000000080000000000000010000000A8
:10390800535441525431320053656C656374656495
:10391800204E4557206465636B2073797374656D19
:103928000053656C6563746564204F4C442064657E
:10393800636B2073797374656D004E5854207661FB
:1039480062616B73006D61696E0016851102022059
:10395800040507090B000D0E000F1069646C650063
:1039680000000000F1195D1B73198C197E19CF191D
:103978000D0A006E616E00696E66006F7666002E35
:0239880000003D
:00000001FF
