:100000000C9461000C947E000C947E000C947E0095
:100010000C947E000C947E000C947E000C947E0068
:100020000C947E000C947E000C947E000C947E0058
:100030000C947E000C947E000C947E000C947E0048
:100040000C949D000C947E000C947E000C947E0019
:100050000C947E000C947E000C947E000C947E0028
:100060000C947E000C947E00000000002400270009
:100070002A0000000000250028002B0000000000DE
:1000800023002600290004040404040404040202DA
:100090000202020203030303030301020408102007
:1000A0004080010204081020010204081020000012
:1000B0000007000201000003040600000000000029
:1000C000000011241FBECFEFD8E0DEBFCDBF11E08E
:1000D000A0E0B1E0EAE3F4E002C005900D92A230A6
:1000E000B107D9F711E0A2E0B1E001C01D92AB3039
:1000F000B107E1F70E940C020C941B020C94000063
:100100008091000161E00E94B80168EE73E080E038
:1001100090E00E94E5008091000160E00E94B8013B
:1001200068EE73E080E090E00E94E5000895809121
:10013000000161E00E94790108951F920F920FB6AD
:100140000F9211242F933F938F939F93AF93BF935D
:100150008091060190910701A0910801B0910901D9
:1001600030910A010196A11DB11D232F2D5F2D375E
:1001700020F02D570196A11DB11D20930A018093F7
:10018000060190930701A0930801B09309018091A3
:10019000020190910301A0910401B0910501019623
:1001A000A11DB11D8093020190930301A09304014E
:1001B000B0930501BF91AF919F918F913F912F9186
:1001C0000F900FBE0F901F9018959B01AC017FB749
:1001D000F8948091020190910301A0910401B091E3
:1001E000050166B5A89B05C06F3F19F00196A11DDA
:1001F000B11D7FBFBA2FA92F982F8827860F911D79
:10020000A11DB11D62E0880F991FAA1FBB1F6A952F
:10021000D1F7BC012DC0FFB7F894809102019091F5
:100220000301A0910401B0910501E6B5A89B05C0AA
:10023000EF3F19F00196A11DB11DFFBFBA2FA92FE5
:10024000982F88278E0F911DA11DB11DE2E0880F08
:10025000991FAA1FBB1FEA95D1F7861B970B885ED3
:100260009340C8F2215030404040504068517C4F8C
:10027000211531054105510571F60895789484B52D
:10028000826084BD84B5816084BD85B5826085BD92
:1002900085B5816085BDEEE6F0E080818160808378
:1002A000E1E8F0E01082808182608083808181605B
:1002B0008083E0E8F0E0808181608083E1EBF0E022
:1002C000808184608083E0EBF0E0808181608083C6
:1002D000EAE7F0E0808184608083808182608083AF
:1002E0008081816080838081806880831092C100DA
:1002F0000895CF93DF93482F50E0CA0186569F4F51
:10030000FC0134914A575F4FFA018491882369F1C7
:1003100090E0880F991FFC01E859FF4FA591B49117
:10032000FC01EE58FF4FC591D491662351F42FB7CD
:10033000F8948C91932F909589238C9388818923AD
:100340000BC0623061F42FB7F8948C91932F909585
:1003500089238C938881832B88832FBF06C09FB706
:10036000F8948C91832B8C939FBFDF91CF9108954C
:10037000482F50E0CA0182559F4FFC012491CA01C9
:1003800086569F4FFC0194914A575F4FFA01349172
:10039000332309F440C0222351F1233071F024307B
:1003A00028F42130A1F0223011F514C02630B1F02C
:1003B0002730C1F02430D9F404C0809180008F77B9
:1003C00003C0809180008F7D8093800010C084B531
:1003D0008F7702C084B58F7D84BD09C08091B00045
:1003E0008F7703C08091B0008F7D8093B000E32FA2
:1003F000F0E0EE0FFF1FEE58FF4FA591B4912FB71D
:10040000F894662321F48C919095892302C08C91F5
:10041000892B8C932FBF0895CF93DF930E943E01C9
:100420000E949700C0E0D0E00E9480002097E1F396
:100430000E940000F9CFF894FFCF0D0080008F7765
:1004400003C0809180008F7D8093800010C084B5B0
:100450008F7702C084B58F7D84BD09C08091B000C4
:100460008F7703C08091B0008F7D8093B000E32F21
:10047000F0E0EE0FFF1FEE58FF4FA591B4912FB79C
:1004800061E00E945705DF91CF911F910F91FF907E
:10049000EF900895EF92FF920F931F93DF93CF9306
:1004A00000D000D0CDB7DEB77A018901FA01108201
:1004B000F9011082118212821382AE014F5F5F4FE9
:1004C00024E00E9416026A81462F50E09A01F5E06E
:1004D00035952795FA95E1F7898190E0E3E0880F5B
:1004E000991FEA95E1F7280F391FC901AA2797FD3F
:1004F000A095BA2FF80180839183A283B38363FF11
:1005000025C072E0880F991FAA1FBB1F7A95D1F7EB
:100510006370860F911DA11DB11DBA2FA92F982FB1
:1005200088272B81820F911DA11DB11DBA2FA92FE4
:10053000982F88272C81820F911DA11DB11D8083CA
:100540009183A283B38381E0F70180830F900F90A2
:100550000F900F90CF91DF911F910F91FF90EF902F
:1005600008951F93CF93DF93EC01162F888960E0E5
:100570000E94570583E08EBD0DB407FEFDCF8EB5FA
:100580001EBD0DB407FEFDCF8EB51EBC0DB407FE1B
:10059000FDCF1EB5888961E00E945705812FDF914C
:1005A000CF911F9108950F931F93CF93DF93EC0189
:1005B000062F9C012F5F3F4FAE010E944A02602F21
:1005C0006150CE010E94B102182F602F6C5FCE01E6
:1005D0000E94B1028D8313FF03C081E08E8701C0AA
:1005E0001E862D812F702D830B5FCE01602F2696E6
:1005F000AE010E941602DF91CF911F910F910895D5
:10060000CF93DF93EC010E94200180FF08C0CE0150
:1006100061E60E94D302CE016CE241E00BC081FD95
:1006200002C084E00BC0CE0161E70E94D302CE017C
:100630006CE242E020E00E943C0180E0DF91CF913B
:100640000895EF92FF920F931F93CF93DF93EC01E6
:100650008B017A010E9400038D81F8018083DE0105
:1006600020E030E009C0F701E20FF31F15968C91EE
:10067000159780832F5F3F4F11968D8190E028174B
:1006800039078CF3DF91CF911F910F91FF90EF907D
:100690000895FF920F931F938C01F62E6FE040EEAA
:1006A0002F2D0E943C01C8016FE00E94B10290E032
:1006B000807E8F1191E0892F1F910F91FF900895F7
:1006C000CF93DF93EC01888960E00E94570580ECAE
:1006D0008EBD0DB407FEFDCF8EB5888961E00E9406
:1006E00057056AE070E080E090E00E948404DF91AA
:1006F000CF9108950F931F93CF93DF93EC01062FB3
:100700000E946003CE0160E80E944903182F8823ED
:10071000F9F4CE01602F0E94B3018823C9F4CE0101
:100720000E948C01CE016BE243E00E946801CE0181
:1007300060E644E624E00E943C01CE0160E740E62A
:1007400020E00E943C01CE0160E00E944903182F86
:10075000812FDF91CF911F910F910895FF920F93F9
:100760001F938C01F62E0E94F800C8016F2D0E9485
:100770007A03811181E01F910F91FF9008958230DB
:1007800000F5E82FF0E0EE0FFF1FE758FE4F7183F2
:100790006083882319F08130A1F408C0809169003A
:1007A0008C7F842B80936900E89A0895809169007A
:1007B000440F551F440F551F837F842B809369007E
:1007C000E99A08951F920F920FB60F9211242F935A
:1007D0003F934F935F936F937F938F939F93AF93C9
:1007E000BF93EF93FF938091790190917A01892BC8
:1007F00029F0E0917901F0917A010995FF91EF914B
:10080000BF91AF919F918F917F916F915F914F9128
:100810003F912F910F900FBE0F901F9018951F9230
:100820000F920FB60F9211242F933F934F935F9324
:100830006F937F938F939F93AF93BF93EF93FF93A8
:1008400080917B0190917C01892B29F0E0917B01C3
:10085000F0917C010995FF91EF91BF91AF919F912C
:100860008F917F916F915F914F913F912F910F9059
:100870000FBE0F901F9018951F920F920FB60F92F8
:1008800011242F933F938F939F93AF93BF938091A6
:10089000810190918201A0918301B09184013091F6
:1008A00085010196A11DB11D232F2D5F2D3720F04D
:1008B0002D570196A11DB11D2093850180938101C3
:1008C00090938201A0938301B093840180917D0174
:1008D00090917E01A0917F01B09180010196A11DB0
:1008E000B11D80937D0190937E01A0937F01B09311
:1008F0008001BF91AF919F918F913F912F910F9068
:100900000FBE0F901F9018959B01AC017FB7F89414
:1009100080917D0190917E01A0917F01B091800135
:1009200066B5A89B05C06F3F19F00196A11DB11DCA
:100930007FBFBA2FA92F982F8827860F911DA11D41
:10094000B11D62E0880F991FAA1FBB1F6A95D1F7DE
:10095000BC012DC0FFB7F89480917D0190917E017C
:10096000A0917F01B0918001E6B5A89B05C0EF3F43
:1009700019F00196A11DB11DFFBFBA2FA92F982F05
:1009800088278E0F911DA11DB11DE2E0880F991FD0
:10099000AA1FBB1FEA95D1F7861B970B885E934071
:1009A000C8F2215030404040504068517C4F2115E2
:1009B00031054105510571F60895789484B582603A
:1009C00084BD84B5816084BD85B5826085BD85B5F3
:1009D000816085BDEEE6F0E0808181608083E1E8A2
:1009E000F0E01082808182608083808181608083DA
:1009F000E0E8F0E0808181608083E1EBF0E08081DD
:100A000084608083E0EBF0E0808181608083EAE7AE
:100A1000F0E0808184608083808182608083808137
:100A2000816080838081806880831092C1000895F6
:100A3000CF93DF93482F50E0CA0186569F4FFC01A9
:100A400034914A575F4FFA018491882369F190E00D
:100A5000880F991FFC01E859FF4FA591B491FC0143
:100A6000EE58FF4FC591D491662351F42FB7F894F7
:100A70008C91932F909589238C93888189230BC027
:100A8000623061F42FB7F8948C91932F909589235D
:100A90008C938881832B88832FBF06C09FB7F894DF
:100AA0008C91832B8C939FBFDF91CF910895482F1A
:100AB00050E0CA0182559F4FFC012491CA0186561D
:100AC0009F4FFC0194914A575F4FFA0134913323B1
:100AD00009F440C0222351F1233071F0243028F46E
:100AE0002130A1F0223011F514C02630B1F02730AA
:100AF000C1F02430D9F404C0809180008F7703C006
:100B0000809180008F7D8093800010C084B58F77A6
:100B100002C084B58F7D84BD09C08091B0008F77FD
:100B200003C08091B0008F7D8093B000E32FF0E090
:100B3000EE0FFF1FEE58FF4FA591B4912FB7F89419
:100B4000662321F48C919095892302C08C91892B86
:100B50008C932FBF089508951F920F920FB60F9296
:100B600011242F933F934F938F939F93EF93FF9372
:100B70008091C00082FD1DC04091C6002091C60139
:100B80003091C7012F5F3F4F2F7330708091C801A4
:100B90009091C9012817390771F0E091C601F091D1
:100BA000C701EA57FE4F40833093C7012093C60127
:100BB00002C08091C600FF91EF919F918F914F915C
:100BC0003F912F910F900FBE0F901F901895E091BD
:100BD0001A02F0911B02E05CFF4F819191912081FC
:100BE0003181821B930B8F739070892B11F00E94BF
:100BF000AB0508951F920F920FB60F9211242F93F9
:100C00003F938F939F93EF93FF9320910A0230912C
:100C10000B0280910C0290910D022817390731F4D4
:100C20008091C1008F7D8093C10014C0E0910C02BF
:100C3000F0910D02E653FE4F208180910C029091BD
:100C40000D0201968F73907090930D0280930C02A9
:100C50002093C600FF91EF919F918F913F912F912B
:100C60000F900FBE0F901F901895AF92BF92DF921A
:100C7000EF92FF920F931F93CF93DF93EC017A01D2
:100C80008B01DD24403081EE580780E0680780E06A
:100C9000780711F0DD24D39491E0A92EB12CEC89D2
:100CA000FD89DD2069F0C50108A002C0880F991FE9
:100CB0000A94E2F7808360E079E08DE390E005C07C
:100CC000108260E874E88EE190E0A80197010E942C
:100CD000EB0821503040404050405695479537959D
:100CE000279580E12030380720F0DD2011F0DD2449
:100CF000D6CFE889F9893083EA89FB89208319A254
:100D0000EE89FF89408121E030E0C9010C8C02C0EE
:100D1000880F991F0A94E2F7482B4083EE89FF89D8
:100D20004081C9010D8C02C0880F991F0A94E2F717
:100D3000482B4083EE89FF894081C9010E8C02C097
:100D4000880F991F0A94E2F7482B4083EE89FF89A8
:100D500080810F8C02C0220F331F0A94E2F7209586
:100D600028232083DF91CF911F910F91FF90EF9067
:100D7000DF90BF90AF900895DC011C96ED91FC913F
:100D80001D97E05CFF4F2191319180819181281B5B
:100D9000390B2F733070C9010895DC011C96ED9159
:100DA000FC911D97E05CFF4F20813181E054F040C1
:100DB000DF01AE5BBF4F8D919C91119728173907CA
:100DC00019F42FEF3FEF07C08D919C91E80FF91FA9
:100DD0008081282F30E0C9010895DC011C96ED9137
:100DE000FC911D97E05CFF4F20813181E054F04081
:100DF000DF01AE5BBF4F8D919C911197281739078A
:100E000019F42FEF3FEF10C08D919C911197E80FCF
:100E1000F91F20818D919C91119701968F7390708D
:100E200011969C938E9330E0C9010895DC01919650
:100E30008C919197882339F05496ED91FC915597B8
:100E4000808186FFF9CF91961C920895CF93DF930E
:100E5000EC01EE85FF85E05CFF4F20813181E0549D
:100E6000F0402F5F3F4F2F733070DF01AE5BBF4FFD
:100E70008D919C91119728173907D1F3E05CFF4FB2
:100E800080819181E054F040E80FF91F6083EE8586
:100E9000FF85E05CFF4F31832083EE89FF8920814D
:100EA00081E090E00F8C02C0880F991F0A94E2F74E
:100EB000282B208381E089A3EC89FD8980818064CF
:100EC000808381E090E0DF91CF910895109211022C
:100ED0001092100288EE93E0A0E0B0E0809312023E
:100EE00090931302A0931402B093150281E591E050
:100EF00090930F0280930E0286E891E090931B027C
:100F000080931A028AEC91E090931D0280931C0258
:100F100085EC90E090931F0280931E0284EC90E099
:100F2000909321028093200280EC90E09093230222
:100F30008093220281EC90E090932502809324021A
:100F400082EC90E0909327028093260286EC90E05A
:100F5000909329028093280284E080932A0283E000
:100F600080932B0287E080932C0285E080932D02F2
:100F700081E080932E020895CF93DF930E94DD04D9
:100F80000E94C800C7EED5E00E9497002097E1F3C9
:100F90000E94E705F9CFCF92DF92EF92FF920F9375
:100FA0001F93CF93DF937C016B018A01C0E0D0E0F7
:100FB0000FC0D6016D916D01D701ED91FC910190AB
:100FC000F081E02DC7010995C80FD91F01501040CD
:100FD0000115110571F7CE01DF91CF911F910F918E
:100FE000FF90EF90DF90CF900895EF92FF920F93D4
:100FF0001F938C01DC01ED91FC910190F081E02DBB
:101000006DE009957C01D801ED91FC910190F08192
:10101000E02DC8016AE009959C012E0D3F1DC90114
:101020001F910F91FF90EF900895CF93DF93EC0104
:101030006115710519F420E030E00FC0DB010D905F
:101040000020E9F71197A61BB70BE881F981028010
:10105000F381E02DAD0109959C01C901DF91CF918C
:1010600008954F925F927F928F929F92AF92BF921C
:10107000CF92DF92EF92FF920F931F93DF93CF9364
:10108000CDB7DEB7A1970FB6F894DEBF0FBECDBFC8
:101090002C01742ECB01223008F42AE019A231E28F
:1010A000C32ED12CCC0EDD1E822E9924AA24BB2463
:1010B000672D752FA50194010E94EB0879018A0123
:1010C000C801B701A50194010E94CC08472D461B19
:1010D0000894C108D1084A3014F4405D01C0495C4D
:1010E000F6014083E114F1040105110521F07E2C85
:1010F0005F2DC801DDCFC201B6010E941508A1967F
:101100000FB6F894DEBF0FBECDBFCF91DF911F9118
:101110000F91FF90EF90DF90CF90BF90AF909F9096
:101120008F907F905F904F900895DC0121153105DD
:1011300041F4ED91FC910190F081E02D642F09952F
:1011400008950E9431080895EF92FF920F931F9324
:101150009A01E62EFF2400E010E0B801A7010E94EA
:1011600095081F910F91FF90EF9008950E94150828
:101170000895EF92FF920F931F937C010E94150830
:101180008C01C7010E94F507080F191FC8011F91A4
:101190000F91FF90EF900895629FD001739FF0012F
:1011A000829FE00DF11D649FE00DF11D929FF00DF7
:1011B000839FF00D749FF00D659FF00D9927729F2E
:1011C000B00DE11DF91F639FB00DE11DF91FBD01B9
:1011D000CF0111240895A1E21A2EAA1BBB1BFD0109
:1011E0000DC0AA1FBB1FEE1FFF1FA217B307E40706
:1011F000F50720F0A21BB30BE40BF50B661F771F5E
:10120000881F991F1A9469F760957095809590953D
:101210009B01AC01BD01CF010895EE0FFF1F0590AA
:10122000F491E02D0994F894FFCF090043414E203A
:1012300042555320536869656C6420696E69742057
:101240006F6B210043414E2042555320536869651E
:101250006C6420696E6974206661696C00496E690E
:10126000742043414E2042555320536869656C6495
:1012700020616761696E00000000002607CB07BC93
:1012800006ED06CD06160700609570958095909541
:101290009B01AC01BD01CF010895EE0FFF1F05902A
:1012A000F491E02D0994F894FFCF090043414E20BA
:1012B00042555320536869656C6420696E697420D7
:1012C0006F6B210043414E2042555320536869659E
:1012D0006C6420696E6974206661696C00496E698E
:1012E000742043414E2042555320536869656C6415
:1012F00020616761696E00000000002607CB07BC13
:1013000066E772E00E94E61580E06DE870E042E07A
:1013100050E00E9423108FE060E00E9494118EE064
:1013200060E00E94941108958DED94E06EE872E003
:101330000E94E6158DED94E067EA72E00E94E615E2
:1013400064E670E080E090E00E94F610D0CF0F934A
:101350001F9387E061E00E94941183E060E00E94A7
:10136000941184E060E00E94941185E060E00E94A6
:10137000941186E060E00E94941188E061E00E9490
:10138000941180E160E00E94941189E061E00E9484
:10139000941181E161E00E94941187E061E00E9474
:1013A000D31188E061E00E94D31189E061E00E94DE
:1013B000D31181E161E00E94D31104E713E0C80179
:1013C00048EE53E060E070E00E94970AC80162E9CD
:1013D00075E02FEF3FEF4FEF5FEF0E949F0A8DED1B
:1013E00094E040E052EC61E070E00E9404130E943F
:1013F00077091F910F9108951F920F920FB60F92C8
:1014000011242F933F934F935F936F937F938F9309
:101410009F93AF93BF93EF93FF93E0917803F09185
:1014200079030995FF91EF91BF91AF919F918F91B2
:101430007F916F915F914F913F912F910F900FBED0
:101440000F901F901895FC01A3E0440F551F661FD5
:10145000771FAA95D1F7403080E0580781E06807F0
:1014600080E0780714F481E010C033E0759567954B
:10147000579547953A95D1F7403080E0580781E07D
:10148000680780E078071CF482E0828339C023E09B
:1014900075956795579547952A95D1F7403080E027
:1014A000580781E0680780E0780714F483E0EDCF07
:1014B00092E075956795579547959A95D1F7403085
:1014C00080E0580781E0680780E0780714F484E042
:1014D000DCCF82E075956795579547958A95D1F74A
:1014E000403080E0580781E0680780E0780714F416
:1014F00085E0CBCF85E082834FEF5FEF60E070E067
:101500008FB78383F894518340835093870040932F
:10151000860083818FBF80918100887F80938100C6
:10152000809181009281892B80938100089510928F
:10153000800020E1209381000E94230A08950F93E8
:101540001F93CF93DF93EC018B0112161306140641
:10155000150624F4BA01A9010E94230A1D830C83F5
:1015600081E080936F00809181009A81892B809324
:101570008100DF91CF911F910F9108958AE061E082
:101580000E94D3118AE061E00E9494118CB58061C1
:101590008CBD8CB580648CBD8DE061E00E9494119F
:1015A0008BE061E00E9494110895FC0161817281D9
:1015B0008381948108950F931F938C01862FF801E6
:1015C000608B61E00E949411F801808961E00E94C3
:1015D000D3111F910F9108951F93CF93DF93EC01C7
:1015E000888960E00E94D31180EA8EBD0DB407FEA9
:1015F000FDCF8EB51EBC0DB407FEFDCF1EB588898C
:1016000061E00E94D311812FDF91CF911F91089546
:10161000FF920F931F93CF93DF93EC01162F042FAC
:10162000F22E888960E00E94D31185E08EBD0DB452
:1016300007FEFDCF8EB51EBD0DB407FEFDCF8EB5E6
:101640000EBD0DB407FEFDCF8EB5FEBC0DB407FE7A
:10165000FDCF8EB5888961E00E94D311DF91CF91D3
:101660001F910F91FF900895615048E028E00E947B
:10167000080B0895EF92FF920F931F93CF93DF9380
:10168000EC01162F042FF52EE22E888960E00E94CF
:10169000D31182E08EBD0DB407FEFDCF8EB51EBD09
:1016A0000DB407FEFDCF8EB5802F9F2D9C01F90153
:1016B00090E008C080818EBD0DB407FEFDCF8EB5D1
:1016C0009F5F31969E15B0F3888961E00E94D31127
:1016D000DF91CF911F910F91FF90EF900895EF92BE
:1016E000FF920F931F93DF93CF9300D000D0CDB71D
:1016F000DEB77C01F8014130B1F40C83FB83C901F2
:10170000AA27BB27382F282F2C71220F220F220F38
:101710003370230F28602A8335E0969587953A9594
:10172000E1F789830EC0C80123E0969587952A9535
:10173000E1F78983802F8295880F807E8A831C82BF
:101740001B82C701AE014F5F5F4F24E00E943A0B3E
:101750000F900F900F900F90CF91DF911F910F91ED
:10176000FF90EF9008950F931F93CF93DF93EC01B9
:10177000162F042F888960E00E94D31182E08EBD6D
:101780000DB407FEFDCF8EB51EBD0DB407FEFDCF17
:101790008EB50EBD0DB407FEFDCF8EB5888961E014
:1017A0000E94D311DF91CF911F910F910895FF9265
:1017B0000F931F93CF93DF93EC01F62E6B5FAC0179
:1017C0004A5F5F4F2D810E943A0B8E85813019F45C
:1017D0008D8180648D836F2D6C5FCE014D810E9461
:1017E000B30B09811A812B813C81CE016F2D488179
:1017F0000E946F0BDF91CF911F910F91FF90089581
:101800001F93CF93DF93EC0110E3CE01612F40E0F3
:101810000E94B30B105FCE01612F40E00E94B30B1A
:10182000105FCE01612F40E00E94B30B1F511E33A9
:1018300061F7CE0160E640E00E94B30BCE0160E7A5
:1018400040E00E94B30BDF91CF911F9108950F9359
:101850001F93CF93DF93EC016730A1F1683070F4F0
:10186000633019F1643028F46130D9F06230A9F4A2
:1018700016C06530F1F0663018F519C06B3059F1BB
:101880006C3028F4693011F16A3010F51DC06D30EC
:1018900051F16D3020F16E3079F081E036C04FE1CA
:1018A00001C04FE30FEF17E821C04FE0FBCF4FE03F
:1018B00013C046E00EEFF7CF46E00EEB17E016C080
:1018C00047E007C043E0EECF43E003C043E008C079
:1018D00041E00AEFE8CF41E401EF15E807C040E03E
:1018E00000EF16E803C040E000ED12E8CE016AE226
:1018F0000E94B30BCE0169E2402F0E94B30BCE01D0
:1019000068E2412F0E94B30B80E0DF91CF911F91DD
:101910000F910895EF92FF920F931F93CF93DF9350
:10192000EC01162F042FF52EE22E888960E00E942C
:10193000D31183E08EBD0DB407FEFDCF8EB51EBD65
:101940000DB407FEFDCF8EB5802F9F2D9C01F901B0
:1019500090E007C01EBC0DB407FEFDCF8EB581938D
:101960009F5F9E15B8F3888961E00E94D311DF91D3
:10197000CF911F910F91FF90EF900895EF92FF92FA
:101980000F931F93DF93CF9300D000D0CDB7DEB776
:101990007A018901FA011082F90110821182128202
:1019A0001382AE014F5F5F4F24E00E948A0C6A8170
:1019B000462F50E09A01F5E035952795FA95E1F725
:1019C000898190E0E3E0880F991FEA95E1F7280FFD
:1019D000391FC901AA2797FDA095BA2FF801808366
:1019E0009183A283B38363FF25C072E0880F991FA0
:1019F000AA1FBB1F7A95D1F76370860F911DA11D99
:101A0000B11DBA2FA92F982F88272B81820F911DE6
:101A1000A11DB11DBA2FA92F982F88272C81820FC5
:101A2000911DA11DB11D80839183A283B38381E0A9
:101A3000F70180830F900F900F900F90CF91DF915F
:101A40001F910F91FF90EF9008951F93CF93DF9315
:101A5000EC01162F888960E00E94D31183E08EBDCF
:101A60000DB407FEFDCF8EB51EBD0DB407FEFDCF34
:101A70008EB51EBC0DB407FEFDCF1EB5888961E092
:101A80000E94D311812FDF91CF911F9108958F92E2
:101A90009F92AF92BF92CF92DF92FF920F931F93CC
:101AA000DF93CF9300D00F92CDB7DEB74C016B011F
:101AB000DE011196EBEEF2E083E001900D92815091
:101AC000E1F7F60110828E010F5F1F4FA4E0AA2EEE
:101AD000B12CAC0EBD1EF801F080C4016F2D0E9428
:101AE000250D83FD05C0F394F601F08280E006C069
:101AF0000F5F1F4F0A151B0571F782E00F900F90C3
:101B00000F90CF91DF911F910F91FF90DF90CF90B9
:101B1000BF90AF909F908F900895CF92DF92EF92F9
:101B2000FF920F931F93DF93CF930F92CDB7DEB742
:101B30007C0100E010E06E010894C11CD11CC701BB
:101B4000B6010E94470D0F5F1F4F823021F0023314
:101B5000110529F420C00233110589F71CC0C70103
:101B600069810E94D70BC70169810E94340B00E094
:101B700010E00F5F1F4FC70169810E94250D83FD93
:101B800005C00233110529F080E006C002331105BB
:101B900081F787E001C086E00F90CF91DF911F9120
:101BA0000F91FF90EF90DF90CF900895EF92FF920A
:101BB0000F93CF93DF93EC01288349835A836B8380
:101BC0007C830D83DC0120E030E0F701E20FF31F9E
:101BD000808116968C9316972F5F3F4F1196283071
:101BE000310599F7CE010E948D0DDF91CF910F91B4
:101BF000FF90EF9008950F931F93CF93DF93EC0125
:101C0000062F9C012F5F3F4FAE010E94BE0C602F3C
:101C10006150CE010E94250D182F602F6C5FCE0100
:101C20000E94250D8D8313FF03C081E08E8701C0C4
:101C30001E862D812F702D830B5FCE01602F26967F
:101C4000AE010E948A0CDF91CF911F910F910895F0
:101C5000CF93DF93EC010E94EC0A80FF08C0CE0115
:101C600061E60E94FB0DCE016CE241E00BC081FDFC
:101C700002C084E00BC0CE0161E70E94FB0DCE01E3
:101C80006CE242E020E00E94080B80E0DF91CF91FF
:101C90000895EF92FF920F931F93CF93DF93EC0180
:101CA0008B017A010E94280E8D81F8018083DE016C
:101CB00020E030E009C0F701E20FF31F15968C9188
:101CC000159780832F5F3F4F11968D8190E02817E5
:101CD00039078CF3DF91CF911F910F91FF90EF9017
:101CE0000895FF920F931F938C01F62E6FE040EE44
:101CF0002F2D0E94080BC8016FE00E94250D90E077
:101D0000807E8F1191E0892F1F910F91FF90089590
:101D1000CF93DF93EC01888960E00E94D31180ECBF
:101D20008EBD0DB407FEFDCF8EB5888961E00E949F
:101D3000D3116AE070E080E090E00E94F610DF913D
:101D4000CF9108950F931F93CF93DF93EC01062F4C
:101D50000E94880ECE0160E80E94710E182F882321
:101D6000F9F4CE01602F0E94270C8823C9F4CE011C
:101D70000E94000CCE016BE243E00E94B30BCE0147
:101D800060E644E624E00E94080BCE0160E740E6EE
:101D900020E00E94080BCE0160E00E94710E182F17
:101DA000812FDF91CF911F910F910895FF920F9393
:101DB0001F938C01F62E0E94BE0AC8016F2D0E944F
:101DC000A20E811181E01F910F91FF9008951F9243
:101DD0000F920FB60F9211242F933F934F935F935F
:101DE0006F937F938F939F93AF93BF93EF93FF93E3
:101DF00080917A030E942712482F80917D03909151
:101E00007E03019690937E0380937D038091470427
:101E1000843618F085E080937B0380917B038330C8
:101E2000D1F0843020F4823009F059C006C08430EB
:101E300071F1853009F053C04CC0442309F04FC004
:101E400080917D0390917E038436910508F443C010
:101E5000109247041EC0413009F041C080914704F0
:101E6000E82FF0E020917D0330917E03EE0FFF1FFD
:101E7000E658FC4F368325838F5F8093470410928A
:101E80007E0310927D0384E080937B0328C044236B
:101E9000B9F480914704E82FF0E020917D03309160
:101EA0007E03EE0FFF1FE658FC4F368325838F5FBE
:101EB0008093470410927E0310927D0383E0E4CF69
:101EC00080917D0390917E038536910540F085E0F9
:101ED000DBCF442321F410927E0310927D03809186
:101EE0007C03882329F0442311F42D9A01C02D98F6
:101EF000FF91EF91BF91AF919F918F917F916F91E2
:101F00005F914F913F912F910F900FBE0F901F90B7
:101F1000189580E161E00E9494110895CF93DF93BA
:101F2000EB0180E160E00E9494111C161D061CF478
:101F3000CE010E944F11DF91CF910895CF93DF938F
:101F4000EB0180E161E00E94941180E160E00E9479
:101F5000D3111C161D061CF4CE010E944F11DF91F7
:101F6000CF9108950F931F938C0180E160E00E9450
:101F70009411C80168E273E20E949E0FC80168ECE8
:101F800078E00E948E0FC80160E372E00E949E0F0D
:101F9000C80160E070E00E948E0F1F910F910895BC
:101FA000AF92BF92CF92DF92EF92FF920F931F9367
:101FB000CF93DF93EC017A018B01590180E160E05E
:101FC0000E949411CE0168E273E20E949E0FCE013E
:101FD00064E971E10E948E0FCC24DD241CC017FF40
:101FE00009C0CE0160E372E00E949E0FCE0160E462
:101FF00076E008C0CE0160E372E00E949E0FCE0141
:1020000060E372E00E948E0FEE0CFF1C001F111F98
:102010000894C11CD11CCA14DB040CF3CE0160E38C
:1020200072E00E949E0FCE0160E070E00E948E0F71
:10203000DF91CF911F910F91FF90EF90DF90CF90A4
:10204000BF90AF900895823000F5E82FF0E0EE0FDA
:10205000FF1FE85BFB4F71836083882319F0813099
:10206000A1F408C0809169008C7F842B8093690063
:10207000E89A089580916900440F551F440F551F39
:10208000837F842B80936900E99A08951F920F92B1
:102090000FB60F9211242F933F934F935F936F933B
:1020A0007F938F939F93AF93BF93EF93FF93809111
:1020B000480490914904892B29F0E0914804F0915B
:1020C00049040995FF91EF91BF91AF919F918F9135
:1020D0007F916F915F914F913F912F910F900FBE24
:1020E0000F901F9018951F920F920FB60F92112408
:1020F0002F933F934F935F936F937F938F939F9310
:10210000AF93BF93EF93FF9380914A0490914B0458
:10211000892B29F0E0914A04F0914B040995FF9135
:10212000EF91BF91AF919F918F917F916F915F914F
:102130004F913F912F910F900FBE0F901F901895C8
:102140001F920F920FB60F9211242F933F938F93EC
:102150009F93AF93BF938091500490915104A091AD
:102160005204B0915304309154040196A11DB11D45
:10217000232F2D5F2D3720F02D570196A11DB11D66
:10218000209354048093500490935104A0935204DC
:10219000B093530480914C0490914D04A0914E044F
:1021A000B0914F040196A11DB11D80934C049093F2
:1021B0004D04A0934E04B0934F04BF91AF919F91F3
:1021C0008F913F912F910F900FBE0F901F901895F8
:1021D0008FB7F894209150043091510440915204EB
:1021E000509153048FBFB901CA0108959B01AC01FE
:1021F0007FB7F89480914C0490914D04A0914E04C7
:10220000B0914F0466B5A89B05C06F3F19F00196C9
:10221000A11DB11D7FBFBA2FA92F982F8827860F28
:10222000911DA11DB11D62E0880F991FAA1FBB1F40
:102230006A95D1F7BC012DC0FFB7F89480914C048A
:1022400090914D04A0914E04B0914F04E6B5A89B27
:1022500005C0EF3F19F00196A11DB11DFFBFBA2FB8
:10226000A92F982F88278E0F911DA11DB11DE2E087
:10227000880F991FAA1FBB1FEA95D1F7861B970BE2
:10228000885E9340C8F22150304040405040685131
:102290007C4F211531054105510571F608950197CF
:1022A00039F0880F991F880F991F02970197F1F74E
:1022B0000895789484B5826084BD84B5816084BDBE
:1022C00085B5826085BD85B5816085BDEEE6F0E0AF
:1022D000808181608083E1E8F0E01082808182600B
:1022E0008083808181608083E0E8F0E0808181608C
:1022F0008083E1EBF0E0808184608083E0EBF0E0BC
:10230000808181608083EAE7F0E08081846080835F
:102310008081826080838081816080838081806809
:1023200080831092C1000895CF93DF93482F50E02F
:10233000CA0186569F4FFC0134914A575F4FFA01FC
:102340008491882369F190E0880F991FFC01E85976
:10235000FF4FA591B491FC01EE58FF4FC591D49168
:10236000662351F42FB7F8948C91932F909589237D
:102370008C93888189230BC0623061F42FB7F89465
:102380008C91932F909589238C938881832B8883BC
:102390002FBF06C09FB7F8948C91832B8C939FBF5F
:1023A000DF91CF910895482F50E0CA0182559F4F89
:1023B000FC012491CA0186569F4FFC0194914A5713
:1023C0005F4FFA013491332309F440C0222351F1C5
:1023D000233071F0243028F42130A1F0223011F59F
:1023E00014C02630B1F02730C1F02430D9F404C035
:1023F000809180008F7703C0809180008F7D8093D3
:10240000800010C084B58F7702C084B58F7D84BDF5
:1024100009C08091B0008F7703C08091B0008F7D9C
:102420008093B000E32FF0E0EE0FFF1FEE58FF4F58
:10243000A591B4912FB7F894662321F48C919095CF
:10244000892302C08C91892B8C932FBF0895682F0C
:1024500070E0CB0182559F4FFC012491CB01865641
:102460009F4FFC0144916A577F4FFB019491992340
:1024700019F420E030E03CC0222351F1233071F008
:10248000243028F42130A1F0223011F514C0263078
:10249000B1F02730C1F02430D9F404C0809180001D
:1024A0008F7703C0809180008F7D8093800010C063
:1024B00084B58F7702C084B58F7D84BD09C08091BB
:1024C000B0008F7703C08091B0008F7D8093B00003
:1024D000892F90E0880F991F84589F4FFC01A59188
:1024E000B4918C9120E030E0842311F021E030E0C1
:1024F000C901089508951F920F920FB60F921124EB
:102500002F933F934F938F939F93EF93FF938091DC
:10251000C00082FD1DC04091C600209195043091FD
:1025200096042F5F3F4F2F733070809197049091E6
:1025300098042817390771F0E0919504F0919604FA
:10254000EB5AFB4F4083309396042093950402C0CE
:102550008091C600FF91EF919F918F914F913F9194
:102560002F910F900FBE0F901F901895E091E904E6
:10257000F091EA04E05CFF4F8191919120813181DB
:10258000821B930B8F739070892B11F00E947A122B
:1025900008951F920F920FB60F9211242F933F931D
:1025A0008F939F93EF93FF932091D9043091DA0496
:1025B0008091DB049091DC042817390731F4809175
:1025C000C1008F7D8093C10014C0E091DB04F091C5
:1025D000DC04E756FB4F20818091DB049091DC0402
:1025E00001968F7390709093DC048093DB042093AA
:1025F000C600FF91EF919F918F913F912F910F9086
:102600000FBE0F901F901895AF92BF92DF92EF927E
:10261000FF920F931F93CF93DF93EC017A018B010D
:10262000DD24403081EE580780E0680780E07807BD
:1026300011F0DD24D39491E0A92EB12CEC89FD8911
:10264000DD2069F0C50108A002C0880F991F0A9417
:10265000E2F7808360E079E08DE390E005C01082CE
:1026600060E874E88EE190E0A80197010E943F16AF
:10267000215030404040504056954795379527951A
:1026800080E12030380720F0DD2011F0DD24D6CFA6
:10269000E889F9893083EA89FB89208319A2EE89C8
:1026A000FF89408121E030E0C9010C8C02C0880F15
:1026B000991F0A94E2F7482B4083EE89FF894081F5
:1026C000C9010D8C02C0880F991F0A94E2F7482BAC
:1026D0004083EE89FF894081C9010E8C02C0880FBA
:1026E000991F0A94E2F7482B4083EE89FF89808185
:1026F0000F8C02C0220F331F0A94E2F72095282383
:102700002083DF91CF911F910F91FF90EF90DF9089
:10271000BF90AF900895DC011C96ED91FC911D9740
:10272000E05CFF4F2191319180819181281B390B11
:102730002F733070C9010895DC011C96ED91FC9156
:102740001D97E05CFF4F20813181E054F040DF01B4
:10275000AE5BBF4F8D919C9111972817390719F4E3
:102760002FEF3FEF07C08D919C91E80FF91F8081FB
:10277000282F30E0C9010895DC011C96ED91FC91F1
:102780001D97E05CFF4F20813181E054F040DF0174
:10279000AE5BBF4F8D919C9111972817390719F4A3
:1027A0002FEF3FEF10C08D919C911197E80FF91F0B
:1027B00020818D919C91119701968F739070119645
:1027C0009C938E9330E0C9010895DC0191968C9121
:1027D0009197882339F05496ED91FC91559780811B
:1027E00086FFF9CF91961C920895CF93DF93EC0169
:1027F000EE85FF85E05CFF4F20813181E054F040A1
:102800002F5F3F4F2F733070DF01AE5BBF4F8D9155
:102810009C91119728173907D1F3E05CFF4F808115
:102820009181E054F040E80FF91F6083EE85FF8549
:10283000E05CFF4F31832083EE89FF89208181E0B6
:1028400090E00F8C02C0880F991F0A94E2F7282BA2
:10285000208381E089A3EC89FD8980818064808365
:1028600081E090E0DF91CF9108951092E004109202
:10287000DF0488EE93E0A0E0B0E08093E104909361
:10288000E204A093E304B093E40482EF92E0909317
:10289000DE048093DD0485E594E09093EA04809360
:1028A000E90489E994E09093EC048093EB0485ECCF
:1028B00090E09093EE048093ED0484EC90E090938C
:1028C000F0048093EF0480EC90E09093F204809306
:1028D000F10481EC90E09093F4048093F30482EC93
:1028E00090E09093F6048093F50486EC90E090934A
:1028F000F8048093F70484E08093F90483E08093E4
:10290000FA0487E08093FB0485E08093FC0481E077
:102910008093FD040895CF93DF930E9459110E9484
:10292000A709C6EBD2E10E940B072097E1F30E94B2
:10293000B612F9CFCF92DF92EF92FF920F931F93CF
:10294000CF93DF937C016B018A01C0E0D0E00FC020
:10295000D6016D916D01D701ED91FC910190F0814F
:10296000E02DC7010995C80FD91F0150104001156E
:10297000110571F7CE01DF91CF911F910F91FF905B
:10298000EF90DF90CF900895EF92FF920F931F93F7
:102990008C01DC01ED91FC910190F081E02D6DE066
:1029A00009957C01D801ED91FC910190F081E02D19
:1029B000C8016AE009959C012E0D3F1DC9011F91B8
:1029C0000F91FF90EF900895CF93DF93EC01611585
:1029D000710519F420E030E00FC0DB010D900020FC
:1029E000E9F71197A61BB70BE881F9810280F38103
:1029F000E02DAD0109959C01C901DF91CF910895AA
:102A00004F925F927F928F929F92AF92BF92CF929E
:102A1000DF92EF92FF920F931F93DF93CF93CDB787
:102A2000DEB7A1970FB6F894DEBF0FBECDBF2C0165
:102A3000742ECB01223008F42AE019A231E2C32E11
:102A4000D12CCC0EDD1E822E9924AA24BB24672D06
:102A5000752FA50194010E943F1679018A01C801D2
:102A6000B701A50194010E94F915472D461B089452
:102A7000C108D1084A3014F4405D01C0495CF60138
:102A80004083E114F1040105110521F07E2C5F2D36
:102A9000C801DDCFC201B6010E94E414A1960FB6B1
:102AA000F894DEBF0FBECDBFCF91DF911F910F9184
:102AB000FF90EF90DF90CF90BF90AF909F908F905E
:102AC0007F905F904F900895DC012115310541F40E
:102AD000ED91FC910190F081E02D642F099508950E
:102AE0000E9400150895EF92FF920F931F937C01AF
:102AF0000E9464158C01C7010E94C4149C01200F20
:102B0000311FC9011F910F91FF90EF900895CF924F
:102B1000DF92EF92FF920F931F93CF93DF93EC011D
:102B20006A017B012115310541F4E881F9810190A9
:102B3000F081E02D642F09951FC02A303105D1F4B2
:102B400077FF17C0E881F9810190F081E02D6DE2F7
:102B500009958C0144275527BA014C195D096E0966
:102B60007F09CE012AE00E9400159801280F391F25
:102B700004C02AE00E9400159C01C901DF91CF9199
:102B80001F910F91FF90EF90DF90CF900895CF921B
:102B9000DF92EF92FF920F931F936C017B019A01DA
:102BA0000027F7FC0095102FB801A7010E94871598
:102BB0008C01C6010E94C414080F191FC8011F917F
:102BC0000F91FF90EF90DF90CF900895EF92FF92DA
:102BD0000F931F937C010E94E4148C01C7010E9493
:102BE000C414080F191FC8011F910F91FF90EF9097
:102BF0000895629FD001739FF001829FE00DF11D47
:102C0000649FE00DF11D929FF00D839FF00D749F66
:102C1000F00D659FF00D9927729FB00DE11DF91F12
:102C2000639FB00DE11DF91FBD01CF01112408956F
:102C3000AA1BBB1B51E107C0AA1FBB1FA617B707E2
:102C400010F0A61BB70B881F991F5A95A9F78095FE
:102C50009095BC01CD01089597FB092E07260AD057
:102C600077FD04D0E5DF06D000201AF47095619559
:102C70007F4F0895F6F7909581959F4F0895A1E2B3
:102C80001A2EAA1BBB1BFD010DC0AA1FBB1FEE1FE6
:102C9000FF1FA217B307E407F50720F0A21BB30B31
:102CA000E40BF50B661F771F881F991F1A9469F7AD
:102CB00060957095809590959B01AC01BD01CF0109
:102CC0000895EE0FFF1F0590F491E02D0994F894FC
:102CD000FFCF425554544F4E5F3000425554544F2D
:102CE0004E5F3100425554544F4E5F3200425554AE
:102CF000544F4E5F3300425554544F4E5F340042A0
:102D00005554544F4E5F3500425554544F4E5F3624
:102D100000425554544F4E5F3700425554544F4E65
:102D20005F3800425554544F4E5F39004552523A75
:102D30002057726F6E67206469676974004E58543B
:102D400020766162616B73004552523A2064696774
:102D500069747320636F756E74203C203300416C7E
:102D6000677573657373650043414E5F4E58545FDA
:102D700053484F52540043414E2073656E64206E99
:102D80006578740043414E2073656E6420707265EF
:102D9000760043414E5F5345454B5F3E3E00434105
:102DA0004E5F5345454B5F3C3C00434C52005345FE
:102DB0005400436F756E743A005461706520506F13
:102DC000776572206F6E0054617065206F75742096
:102DD000746F2053544F500053746F7020746F20E1
:102DE00041004120746F203C3C00203C3C20746F2B
:102DF000203E3E00203E3E20746F20420042207460
:102E00006F203E3E00203E3E20746F203C3C002060
:102E10003C3C2020746F2041004120736964652090
:102E2000746F2053544F500053544F5020746F20F0
:102E300074617065206F7574005461706520506F07
:102E4000776572206F66660043414E2042555320DD
:102E5000536869656C6420696E6974206F6B21002A
:102E600043414E2042555320536869656C64206984
:102E70006E6974206661696C00496E697420434113
:102E80004E2042555320536869656C642061676128
:102E9000696E000A007B00010001000000000010C4
:102EA00000000000000000080000005004000000C6
:102EB000000000505B0000000000000100304050A6
:102EC00000000000F5139A148B13BC139C13E51338
:102ED000536869656C6420696E6974206F6B2100AA
:102EE00043414E2042555320536869656C64206904
:102EF0006E6974206661696C00496E697420434193
:102F00009F93EF93FF932091CA043091CB0480915B
:102F1000CC049091CD042817390731F48091C10079
:102F20008F7D8093C10014C0E091CC04F091CD045A
:102F3000E657FB4F20818091CC049091CD040196FF
:102F40008F7390709093CD048093CC042093C6002F
:102F5000FF91EF919F918F913F912F910F900FBE15
:102F60000F901F901895AF92BF92DF92EF92FF9251
:102F70000F931F93CF93DF93EC017A018B01DD2434
:102F8000403081EE580780E0680780E0780711F054
:102F9000DD24D39491E0A92EB12CEC89FD89DD20AC
:102FA00069F0C5010E8C02C0880F991F0A94E2F7E0
:102FB000808360E079E08DE390E005C0108260E8F6
:102FC00074E88EE190E0A80197010E94D219215087
:102FD000304040405040569547953795279580E1C1
:102FE0002030380720F0DD2011F0DD24D6CFE8892D
:102FF000F9893083EA89FB892083EE89FF89408142
:1030000021E030E0C9010A8C02C0880F991F0A94A0
:10301000E2F7482B4083EE89FF894081C9010B8C80
:1030200002C0880F991F0A94E2F7482B4083EE896B
:10303000FF894081C9010C8C02C0880F991F0A9436
:10304000E2F7482B4083EE89FF8980810D8C02C016
:10305000220F331F0A94E2F7209528232083DF9163
:10306000CF911F910F91FF90EF90DF90BF90AF90A5
:103070000895DC011C96ED91FC911D97E05CFF4FDB
:103080002191319180819181281B390B2F733070F0
:10309000C9010895DC011C96ED91FC911D97E05C3F
:1030A000FF4F20813181E054F040DF01AE5BBF4F24
:1030B0008D919C9111972817390719F42FEF3FEF45
:1030C00007C08D919C91E80FF91F8081282F30E077
:1030D000C9010895DC011C96ED91FC911D97E05CFF
:1030E000FF4F20813181E054F040DF01AE5BBF4FE4
:1030F0008D919C9111972817390719F42FEF3FEF05
:1031000010C08D919C911197E80FF91F20818D912E
:103110009C91119701968F73907011969C938E934A
:1031200030E0C9010895FC0186859785DC01A05C2B
:10313000BF4FFC01EE5BFF4F2D913C9111978081B9
:10314000918128173907C1F70895CF93DF93EC01D8
:10315000EE85FF85E05CFF4F20813181E054F04037
:103160002F5F3F4F2F733070DF01AE5BBF4F8D91EC
:103170009C91119728173907D1F3E05CFF4F8081AC
:103180009181E054F040E80FF91F6083EE85FF85E0
:10319000E05CFF4F31832083EE89FF89208181E04D
:1031A00090E00D8C02C0880F991F0A94E2F7282B3B
:1031B000208381E090E0DF91CF91089581E0089530
:1031C0001092D1041092D00488EE93E0A0E0B0E019
:1031D0008093D2049093D304A093D404B093D504E5
:1031E00084EC91E09093CF048093CE0486E494E045
:1031F0009093DB048093DA048AE894E09093DD04F2
:103200008093DC0485EC90E09093DF048093DE04EF
:1032100084EC90E09093E1048093E00480EC90E0F3
:103220009093E3048093E20481EC90E09093E504B2
:103230008093E40486EC90E09093E7048093E604A6
:1032400084E08093E80483E08093E90487E080933E
:10325000EA0485E08093EB0481E08093EC04089518
:10326000CF93DF930E9462160E94E401C5E6D7E186
:103270000E94C0012097E1F30E946517F9CFCF9219
:10328000DF92EF92FF920F931F93CF93DF937C0116
:103290006B018A01C0E0D0E00FC0D6016D916D01D5
:1032A000D701ED91FC910190F081E02DC7010995C6
:1032B000C80FD91F015010400115110571F7CE013B
:1032C000DF91CF911F910F91FF90EF90DF90CF9002
:1032D0000895EF92FF920F931F938C01DC01ED9103
:1032E000FC910190F081E02D6DE009957C01D80101
:1032F000ED91FC910190F081E02DC8016AE0099503
:103300009C012E0D3F1DC9011F910F91FF90EF9061
:103310000895CF93DF93DB010D900020E9F711971B
:10332000A61BB70BEC01E881F9810280F381E02D47
:10333000AD010995DF91CF9108950E9489190895F3
:10334000EF92FF920F931F937C010E9489198C01C9
:10335000C7010E946919080F191FC8011F910F9119
:10336000FF90EF900895629FD001739FF001829FBC
:10337000E00DF11D649FE00DF11D929FF00D839F04
:10338000F00D749FF00D659FF00D9927729FB00DA1
:10339000E11DF91F639FB00DE11DF91FBD01CF01B4
:1033A00011240895A1E21A2EAA1BBB1BFD010DC01A
:1033B000AA1FBB1FEE1FFF1FA217B307E407F507E5
:1033C00020F0A21BB30BE40BF50B661F771F881FC1
:1033D000991F1A9469F760957095809590959B0157
:1033E000AC01BD01CF010895EE0FFF1F0590F491D0
:1033F000E02D099410E0C8EDD0E004C0FE010E9469
:10340000F6192296CA3DD107C9F7F894FFCF496E45
:10341000697469616C697A696E67205344206361DD
:1034200072642E2E2E00696E697469616C697A610E
:1034300074696F6E206661696C65642100696E69EC
:103440007469616C697A6174696F6E20646F6E650E
:103450002E00746573742E747874005772697469E1
:103460006E6720746F20746573742E7478742E2EBA
:103470002E0074657374696E6720312C20322C2005
:10348000332E00646F6E652E006572726F72206F4E
:1034900070656E696E6720746573742E747874003D
:1034A000746573742E7478743A002F002000F10450
:1034B0000000FFFFFFFF00000000F602B3030E0351
:1034C00059037703510300000000CB0F3F190000A0
:1034D0000000A5183F1939186A184A18931874691A
:1034E0006E6720746F20746573742E7478742E2E3A
:1034F0002E0074657374696E6720312C20322C2085
:10350000FFFFFFFFFFFFFFFFFFFFFFFFFFFFFFFFCB
:10351000FFFFFFFFFFFFFFFFFFFFFFFFFFFFFFFFBB
:10352000FFFFFFFFFFFFFFFFFFFFFFFFFFFFFFFFAB
:10353000FFFFFFFFFFFFFFFFFFFFFFFFFFFFFFFF9B
:107E0000112484B714BE81FFF0D085E080938100F7
:107E100082E08093C00088E18093C10086E0809377
:107E2000C20080E18093C4008EE0C9D0259A86E02C
:107E300020E33CEF91E0309385002093840096BBD3
:107E4000B09BFECF1D9AA8958150A9F7CC24DD24C4
:107E500088248394B5E0AB2EA1E19A2EF3E0BF2EE7
:107E6000A2D0813461F49FD0082FAFD0023811F036
:107E7000013811F484E001C083E08DD089C08234E0
:107E800011F484E103C0853419F485E0A6D080C0E4
:107E9000853579F488D0E82EFF2485D0082F10E0AE
:107EA000102F00270E291F29000F111F8ED06801E7
:107EB0006FC0863521F484E090D080E0DECF843638
:107EC00009F040C070D06FD0082F6DD080E0C81688
:107ED00080E7D80618F4F601B7BEE895C0E0D1E017
:107EE00062D089930C17E1F7F0E0CF16F0E7DF06D8
:107EF00018F0F601B7BEE89568D007B600FCFDCFD4
:107F0000A601A0E0B1E02C9130E011968C91119780
:107F100090E0982F8827822B932B1296FA010C0160
:107F200087BEE89511244E5F5F4FF1E0A038BF0790
:107F300051F7F601A7BEE89507B600FCFDCF97BE46
:107F4000E89526C08437B1F42ED02DD0F82E2BD052
:107F50003CD0F601EF2C8F010F5F1F4F84911BD097
:107F6000EA94F801C1F70894C11CD11CFA94CF0C13
:107F7000D11C0EC0853739F428D08EE10CD085E9AC
:107F80000AD08FE07ACF813511F488E018D01DD067
:107F900080E101D065CF982F8091C00085FFFCCF94
:107FA0009093C60008958091C00087FFFCCF809118
:107FB000C00084FD01C0A8958091C6000895E0E648
:107FC000F0E098E1908380830895EDDF803219F02E
:107FD00088E0F5DFFFCF84E1DECF1F93182FE3DFCA
:107FE0001150E9F7F2DF1F91089580E0E8DFEE27F6
:107FF000FF270994FFFFFFFFFFFFFFFFFFFF0404C0
:00000001FF
